:020000040800F2
:100000007812002051010008710B0008F509000862
:100010007D0A0008990700081F1900080000000069
:1000200000000000000000000000000015110008A2
:100030009D0700080000000021010008D9130008F6
:100040006B0100086B0100086B0100086B010008E0
:100050006B0100086B0100086B0100086B010008D0
:100060006B0100086B0100086B0100086B010008C0
:100070006B0100086B0100086B0100086B010008B0
:100080006B0100086B0100086B0100086B010008A0
:100090006B0100086B0100086B0100086B01000890
:1000A0006B0100086B0100086B0100086B01000880
:1000B0006B0100086B010008411400086B01000887
:1000C0006B0100086B0100086B0100086B01000860
:1000D0006B010008A51600086B0100086B01000801
:1000E0006B0100086B0100086B010008DFF80CD001
:1000F00000F030FB0048004715250008781200206A
:10010000EFF30980704780F309887047EFF30880A8
:10011000704780F30888704740BA7047C0BA70478C
:10012000EFF3098020B120E9F00F07490968086062
:10013000054806490A6802601068B0E8F00F80F3CD
:1001400009884EF0040E70472C000020300000207B
:100150000648804706480047FEE7FEE7FEE7FEE761
:10016000FEE7FEE7FEE7FEE7FEE7FEE7E113000835
:10017000ED000008D2B201E000F8012B491EFBD2CD
:1001800070470022F6E710B513460A4604461946A2
:10019000FFF7F0FF204610BD2DE9FE4F804681EAB3
:1001A0000300C00F0C46009021F0004123F00045F1
:1001B000B8EB0200A94105D24046214690461C46B4
:1001C0000B46024623F00040104347D0270DC7F3EB
:1001D0000A00C3F30A510290401A019040286BDADA
:1001E000C3F3130040F4801B0098924620B1002313
:1001F000D2EB030A63EB0B0B01985946C0F14002A6
:10020000504600F0C1F906460D4650465946019A3F
:1002100000F0C9F910EB08006141002487EA11528F
:1002200084EAE7731A4340D0009A62B3019A012A24
:100230004FEA075215DC001B61EB02014FF0004250
:1002400002EA0752CDE90042001C41F58011324616
:100250002B4600F000FA03B0BDE8F08F404621467F
:10026000F9E7001B61EB0201001C41F58013001847
:100270005B412018A2F5001747EB030140EAD57057
:10028000B6196D4111E06D084FEA360645EAC075B2
:100290004FEA0752001B61EB0201001C41F580117F
:1002A00049084FEA30000019514132462B4603B04D
:1002B000BDE8F04F00F0C0B90098012240000023D3
:1002C000D0EB020263EBE073009821464FEAE07442
:1002D000B8EB000061EB0401E9E783F000435BE762
:1002E00081F0004158E72DE9FE4F81EA030404F054
:1002F000004421F0004100944FF0000B23F0004334
:1003000050EA01045ED052EA03045BD0C3F30A54FE
:10031000C1F30A552C44A4F2F3340194A0FB025417
:10032000C1F3130141F48011C3F3130343F48013A9
:1003300001FB024400FB034E840A970A44EA8154FD
:1003400047EA8357A4FB076802958D0A05FB0785DA
:100350004FEA932C04FB0C542705029D4FEA0658E4
:1003600047EA1637B5EB08056EEB070C870E920EC1
:1003700047EA811742EA8312A7FB0201B6EB0B01A1
:1003800064EB00042B0D43EA0C335E1844EB1C5065
:10039000DA465146E7FB0201C5F313044FEA0B337B
:1003A00043EA14534FEA0432019C43EA0603A4F1E2
:1003B0000C040294009CCDE900B400F04CF903B0A9
:1003C000BDE8F08F00200146F9E72DE9F04D81EA04
:1003D000030404F0004B21F0004514464FF0000ADE
:1003E00023F0004150EA050220D054EA01021DD05A
:1003F000C5F30A570246C5F31303C1F31300C1F353
:100400000A5640F4801543F48013A7EB0608101B2E
:10041000D64608F2FD3873EB050002D308F1010857
:1004200001E092185B41B8F1000F03DA00200146A9
:10043000BDE8F08D00204FF48011064684460EE0A2
:10044000171B73EB050705D3121B63EB050306436C
:100450004CEA010C49084FEA300092185B4150EA1F
:100460000107EDD152EA030012D082EA040083EAC8
:100470000501084305D0101BAB4106D20122002321
:1004800006E000224FF0004302E06FF0010253103B
:100490001AEB06004CEB085110EB0A0041EB0B0184
:1004A000BDE8F04D00F0C8B80EB540F233410291FE
:1004B0000021CDE900110A460B4600F0CCF803B04C
:1004C00000BD01F0004330B421F0004150EA0102C8
:1004D00006D00A0DA2F56072C1F31301002A02DCF6
:1004E00030BC00207047440F44EAC104C100E0184A
:1004F00030BC00EBC25000F068B830B50B46014686
:1005000000202022012409E021FA02F59D4205D3B2
:1005100003FA02F5491B04FA02F52844151EA2F15C
:100520000102F1DC30BD2DE9F05F05460020924666
:100530009B4688460646814640241BE028464146A5
:100540004746224600F018F953465A46C01A9141D0
:1005500010D311461846224600F016F82D1A67EB04
:1005600001084F4622460120002100F00DF817EB4C
:1005700000094E41201EA4F10104DFDC484631464B
:100580002A464346BDE8F09F202A04DB203A00FAC1
:1005900002F1002070479140C2F1200320FA03F3DA
:1005A000194390407047202A06DBCB17203A41FAC6
:1005B00002F043EAE07306E041FA02F3D040C2F1F0
:1005C000200291400843194670470029A8BF704790
:1005D000401C490008BF20F00100704710B4B0FA79
:1005E00080FC00FA0CF050EA010404BF10BC704714
:1005F00049B1CCF1200421FA04F411FA0CF118BF2E
:10060000012121430843A3EB0C01CB1D4FEA0061FC
:100610004FEA102042BF002010BC704700EBC350CF
:1006200010440029A4BF10BC7047401C490008BFFB
:1006300020F0010010BC704710B5141E73F10004C7
:1006400008DA401C41F1000192185B411A4301D1C4
:1006500020F0010010BD2DE9F04D92469B4611B1EE
:10066000B1FA81F202E0B0FA80F220329046FFF750
:100670008BFF04460F4640EA0A0041EA0B0153464D
:100680005A46084313D0114653EA010019D0C8F165
:100690004002504600F070F805460E465046594656
:1006A0004246FFF771FF084305D0012004E02046D1
:1006B0003946BDE8F08D0020054346EAE0762C433C
:1006C00037430A986305E40AA0EB08000022FD0AFC
:1006D00044EA47540A3002D500200146E9E7010503
:1006E00010196941DDE9084500196941BDE8F04D7F
:1006F000A2E7C1F30A52C1F3130140F2FF3341F400
:1007000080119A4202DA00200146704740F23343DA
:100710009A42A2F2334202DC524200F02DB8FFF7B7
:1007200033BF000030B5041E71F1000404DB4FF04C
:100730000044404264EB0101141E73F1000405DB28
:100740001C464FF00043524263EB0403994208BF3A
:10075000904230BD064C074D06E0E06840F00103D2
:1007600094E8070098471034AC42F6D3FFF7C2FC78
:100770003435000854350008202A04DB203A21FAD9
:1007800002F00021704721FA02F3D040C2F12002AA
:10079000914008431946704700BFFEE770470000CC
:1007A00008B50121042000F03BFC0820ADF8000052
:1007B00004208DF8030003208DF8020069460248EA
:1007C00000F004F808BD0000000801402DE9F041E8
:1007D000024600250026002000230024002791F86F
:1007E00003C00CF00F0591F803C00CF0100CBCF125
:1007F000000F03D091F802C04CEA050591F800C043
:10080000BCF1000F31D0146800202BE04FF0010C38
:100810000CFA00F3B1F800C00CEA03069E4220D1A6
:1008200083004FF00F0C0CFA03F7BC4305FA03FCEE
:100830004CEA040491F803C0BCF1280F06D14FF034
:10084000010C0CFA00FCC2F814C00AE091F803C0D5
:10085000BCF1480F05D14FF0010C0CFA00FCC2F8B6
:1008600010C0401C0828D1D31460B1F800C0BCF1FE
:10087000FF0F34DD546800202EE000F1080C4FF02B
:10088000010808FA0CF3B1F800C00CEA03069E4216
:1008900021D183004FF00F0C0CFA03F7BC4305FA8B
:1008A00003FC4CEA040491F803C0BCF1280F05D105
:1008B00000F1080C08FA0CF8C2F8148091F803C093
:1008C000BCF1480F07D100F1080C4FF0010808FAFD
:1008D0000CF8C2F81080401C0828CED35460BDE844
:1008E000F0810246002093680B400BB1012000E02C
:1008F00000207047416170470AB1016100E0416129
:100900007047000010B5044614B101203649087044
:1009100035480078002843D04FF400613348FFF792
:10092000E0FF98B110213248FFF7DBFF70B12021C2
:100930002F48FFF7D6FF48B140212D48FFF7D1FFE0
:1009400020B180212A48FFF7CCFF48BB022002F0EB
:100950001BF80020244908704FF400612348FFF77A
:10096000C0FF08B9002010BD10212148FFF7B9FFD2
:1009700008B90120F7E720211D48FFF7B2FF08B9A9
:100980000220F0E740211A48FFF7ABFF08B9032027
:10099000E9E780211648FFF7A4FF10BB0420E2E737
:1009A0004FF400611148FFF79CFF012819D1102175
:1009B0000F48FFF796FF012813D120210C48FFF7BD
:1009C00090FF01280DD140210948FFF78AFF012837
:1009D00007D180210648FFF784FF012801D1024991
:1009E0000870FF20BFE70000580000200008014009
:1009F000000C014000BFFEE708B501210C2000F00B
:100A00000FFBF020ADF8000048208DF80300032014
:100A10008DF8020069460948FFF7D8FE4FF40060E0
:100A2000ADF8000048208DF8030003208DF8020087
:100A300069460348FFF7CAFE08BD0000000C0140EC
:100A40000008014008B50121102000F0E9FA4FF438
:100A50000050ADF8000010208DF8030003208DF841
:100A6000020069460448FFF7B1FE4FF40051024806
:100A7000FFF740FF08BD00000010014000BFFEE787
:100A800038B504464FF40040ADF8000010208DF852
:100A9000030003208DF8020069460548FFF796FE23
:100AA00022464FF400410248FFF726FF38BD000000
:100AB0000010014030B589B005460C4601210846BA
:100AC00000F09EFA0121042000F0AAFA18208DF807
:100AD00023000120ADF8200003208DF8220008A992
:100AE0001A48FFF773FE4FF0804000F02AFD002007
:100AF000ADF81A00ADF81600681E80B2ADF8180007
:100B0000601E80B2ADF8140000208DF81C0005A90D
:100B10004FF0804000F074FD01A800F065FD6020FA
:100B2000ADF804000020ADF80C000120ADF806007F
:100B30000020ADF80A0001A94FF0804000F008FD48
:100B40000121880700F0D7FC09B030BD0008014042
:100B500010B5044641F29410844200DD00E02046C6
:100B6000044621464FF0804000F048FD204610BD6D
:100B70007047000070B5002100230F22C47804B331
:100B8000154C246804F4E064C4F5E064210AC1F162
:100B90000403CA40447804FA03F1847814402143E2
:100BA00009010E4C0678A155047804F01F050124B4
:100BB000AC4005786D11AD0005F1E025C5F80041A8
:100BC00009E0047804F01F050124AC40044D0678C8
:100BD000761145F8264070BD0CED00E000E400E021
:100BE00080E100E002490143024A116070470000C1
:100BF0000000FA050CED00E070B500240EE00021C5
:100C0000204600F0F0F8002504E0002000F0E8F9AC
:100C1000681CC5B2802DF8DB601CC4B2082CEEDB6A
:100C200070BD000008B50121082000F0F9F914207A
:100C30008DF8030003208DF802004FF48070ADF8AA
:100C4000000069460A48FFF7C1FD4FF40070ADF897
:100C5000000069460648FFF7B9FD01221102044869
:100C6000FFF74AFE012251020148FFF745FE08BD89
:100C7000000C014070B50546002415E0802020419D
:100C800000EA05024FF400710E48FFF735FE01221D
:100C900011020C48FFF730FE00224FF48071094822
:100CA000FFF72AFE601CC4B2082CE7DB0122110208
:100CB0000448FFF721FE00224FF480710148FFF73E
:100CC0001BFE70BD000C014010B5012251020A4804
:100CD000FFF712FE012211020748FFF70DFE002266
:100CE0004FF400710448FFF707FE00224FF48071B3
:100CF0000148FFF701FE10BD000C014010B50022B5
:100D00004FF400710648FFF7F7FD01221102044875
:100D1000FFF7F2FD012251020148FFF7EDFD10BD82
:100D2000000C014070B5002406E0002500E06D1CB9
:100D3000B5F57A7FFBD3641CB4F57A7FF5D3FFF762
:100D400071FFAE2000F03CF9D52000F039F9802089
:100D500000F036F9A82000F033F93F2000F030F918
:100D6000D32000F02DF9002000F02AF9402000F0F7
:100D700027F9A12000F024F9C82000F021F9DA2099
:100D800000F01EF9122000F01BF9812000F018F984
:100D9000CF2000F015F9D92000F012F9F12000F071
:100DA0000FF9DB2000F00CF9302000F009F9A42045
:100DB00000F006F9A62000F003F98D2000F000F9FC
:100DC000142000F0FDF8AF2000F0FAF8FFF714FF50
:100DD00070BD10B50246012000E050430B1EA1F18A
:100DE0000101FAD110BD70B505460C4645F0B000C2
:100DF00000F0E6F8102141EA141000F0E1F804F0E8
:100E00000F0000F0DDF870BD2DE9F04105460E46FB
:100E10001746721ED206110E6A1E5206100EFFF7FA
:100E2000E2FF002409E0A7F12001134A02EB0111BF
:100E3000085D00F0D5F8601CC4B2082CF3DB721E0C
:100E4000D206110E6A1E012303EB4202D0B2FFF755
:100E5000CAFF00240BE0A7F12001074A02EB0112B0
:100E600004F10801505C00F0BBF8601CC4B2082C0F
:100E7000F1DBBDE8F0810000442F000810B501232C
:100E80000D4808210268184600F01EF803230B489D
:100E900002780E21012000F017F8042308480821E9
:100EA0000268022000F010F80423064808210268B6
:100EB000032000F009F810BD6C000020680000203D
:100EC00060000020640000202DE9F04780460E46B7
:100ED00017461D46002415E0281B411E0A20FFF777
:100EE00078FFB7FBF0F00A21B0FBF1F201FB120032
:100EF00000F130093019C1B24A464046FFF784FF7D
:100F0000601CC4B2AC42E7DBBDE8F08710B514A2A8
:100F10000121084600F040F813A20A21012000F048
:100F20003BF813A20121022000F036F812A20121A1
:100F3000032000F031F812A20821012000F02CF863
:100F400010A20E21012000F027F80FA20821022094
:100F500000F022F80EA20821032000F01DF810BDB9
:100F60004F4E2F4F464600004B65793A0000000077
:100F7000536572766F3A00004D6F746F723A0000DD
:100F800030000000323535003132303000000000D2
:100F900030303030000000002DE9F04107460E46A9
:100FA0001546002407E02A5D3019C1B23846FFF724
:100FB0002BFF601CC4B2285D0028F4D1BDE8F0818D
:100FC00010B50446FFF780FE7820FFF753FE00209F
:100FD000FFF750FE2046FFF74DFEFFF78FFE10BDD6
:100FE00010B50446FFF770FE7820FFF743FE40205F
:100FF000FFF740FE2046FFF73DFEFFF77FFE10BDE6
:1010000029B1064AD2690243044BDA6104E0034A7B
:10101000D2698243014BDA61704700000010024040
:1010200029B1064A92690243044B9A6104E0034ADB
:1010300092698243014B9A617047000000100240A0
:1010400030B500210022002400232D4D6D6805F0ED
:101050000C0121B1042905D0082923D105E0294D2F
:10106000056022E0274D05601FE0254D6D6805F401
:101070007012234D6D6805F48034022505EB924211
:101080001CB9214D554305600BE01D4D6D6805F4FD
:1010900000351DB11C4D5543056002E0194D554307
:1010A000056002E0174D056000BF00BF144D6D687C
:1010B00005F0F0010909154D6B5C0568DD404560E0
:1010C0000F4D6D6805F4E061090A104D6B5C4568D1
:1010D000DD4085600A4D6D6805F46051C90A0B4D0D
:1010E0006B5C4568DD40C560054D6D6805F44041A9
:1010F000890B074D6B5CC568B5FBF3F5056130BD29
:101100000010024000127A0000093D001400002087
:10111000240000207047000010B586B0044601216D
:101120008803FFF77DFF01210420FFF779FF1820D6
:101130008DF817004FF40070ADF8140003208DF8FF
:10114000160005A91F48FFF741FB48208DF817003E
:101150004FF48060ADF8140003208DF8160005A947
:101160001848FFF733FB01940020ADF810000C2065
:10117000ADF80E000020ADF80C00ADF80A00ADF897
:10118000080001A9104800F055FB012240F225514A
:101190000D4800F029FB4FF4A060FFF723FD252048
:1011A0008DF8000001208DF803008DF801008DF806
:1011B00002006846FFF7DEFC0121034800F0D1FA87
:1011C00006B010BD000801400038014010B50446CB
:1011D0002146054800F09FFB00BF8021024800F037
:1011E000CCFA0028F9D010BD0038014000B589B014
:1011F00001210220FFF704FF01210420FFF710FF67
:1012000018208DF823004020ADF8200003208DF831
:10121000220008A91948FFF7D9FA194800F091F9F6
:101220000020ADF81A00ADF8160044F61F60ADF8C6
:1012300018004720ADF8140000208DF81C0005A907
:101240000F4800F0DDF901A800F0CEF96020ADF8FC
:1012500004000020ADF80C000120ADF8060040F2BB
:10126000E240ADF80A0001A9054800F071F901213A
:10127000034800F040F909B000BD0000000801403B
:101280000004004010B504462146024800F0B6F9BB
:10129000204610BD0004004010B500F001F810BD5C
:1012A0000CB50020019000903348006840F4803075
:1012B0003149086000BF3048006800F400300090F9
:1012C0000198401C0190009818B90198B0F5A06FE2
:1012D000F1D12948006800F4003010B101200090DD
:1012E00001E0002000900098012843D123480068C5
:1012F00040F01000214908600846006820F0030013
:1013000008600846006840F0020008601A4840681B
:10131000194948600846406848600846406840F4FB
:10132000806048600846406820F47C1048600846A9
:10133000406840F4E81048600846006840F080705B
:10134000086000BF0C48006800F000700028F9D069
:101350000948406820F00300074948600846406893
:1013600040F00200486000BF0348406800F00C00F5
:101370000828F9D10CBD00000010024000200240F6
:1013800030B502461148006850434FF47A71B0FB03
:10139000F1F0401E4FF0E021486148170F2100286E
:1013A00007DA0B071D0E0A4B00F00F04241F1D5512
:1013B00003E00B071C0E074B1C5400BF00204FF02E
:1013C000E02188610720086130BD00000000002096
:1013D00018ED00E000E400E010B501F03DFC10BDA8
:1013E00010B51348006840F0010011490860084634
:1013F0004068104908400E494860084600680E4998
:1014000008400B4908600846006820F48020086006
:101410000846406820F4FE0048604FF41F008860D2
:10142000FFF73AFF4FF000600449086010BD00006C
:10143000001002400000FFF8FFFFF6FE08ED00E09C
:1014400010B501210E4800F062F8B8B10D480078DF
:10145000401C0C4908700846007832280ADD0A480A
:10146000006808B9012000E000200749086000205A
:10147000044908700121024800F03AF810BD00004C
:10148000000800402B000020B40122427FB5054631
:101490000C4601210420FFF7B3FD681E80B2ADF8B1
:1014A0000800601E80B2ADF804000020ADF80A000C
:1014B000ADF8060001A90D4800F0A2F8012211467E
:1014C0000A4800F035F81E208DF8000000208DF845
:1014D000010001208DF802008DF803006846FFF737
:1014E00049FB0121014800F006F87FBD00080040DB
:1014F000CA430282704721B1028842F00102028091
:1015000004E002884FF6FE731A400280704730B53F
:101510000246002000230024158A05EA010395896C
:1015200005EA010413B10CB1012000E0002030BD38
:101530001AB183890B43838102E083898B438381C2
:10154000704701894FF6F872114001817047000021
:1015500070B5002400220023058C4FF6FE7635403E
:101560000584028C8388048B4FF68F752C40B51E42
:101570002C400D882C43751E2A400D892A434D8826
:101580002A43144DA8420BD0134DA84208D0134D46
:10159000A84205D0124DA84202D0124DA84213D144
:1015A0004FF6F7752A404D892A434FF6FB752A40BE
:1015B0008D882A434FF6FF652B404FF6FF552B4091
:1015C0008D892B43CD892B4383800483CD888586E9
:1015D000028470BD002C01400034014000400140F5
:1015E0000044014000480140002101804180818089
:1015F000C180018141818181C181704781867047AD
:10160000002202881D4B98420ED01D4B98420BD0F1
:10161000B0F1804F08D01B4B984205D01A4B98422E
:1016200002D01A4B984204D14FF68F731A404B8860
:101630001A43174B984207D0164B984204D04FF6E6
:10164000FF431A40CB881A4302808B8883850B881E
:1016500003850A4B98420BD0094B984208D00E4B99
:10166000984205D00D4B984202D00D4B984201D1C3
:101670000B7A03860123838270470000002C01400F
:10168000003401400004004000080040000C00400D
:1016900000100040001400400040014000440140A0
:1016A0000048014010B540F22551214800F072F881
:1016B00001283CD11E4800F029F9C4B21D48007829
:1016C00058B9402C2DD11C48007850BB0120194935
:1016D000087000201949087023E016480078012896
:1016E0000FD10D2C03D102201249087019E01448C3
:1016F00012490978445411480078401C0F49087079
:101700000FE00C48007802280BD10A2C09D10020E8
:10171000084908700A49094A127888540120064984
:10172000087040F22551024800F00CF800BF10BDCF
:101730000038014029000020280000202A00002055
:101740007800002010B50022002340F66A14A14260
:1017500000D100BF0A1201249440A3B2DC430480EC
:1017600010BD21B1828942F40052828104E0828955
:101770004DF6FF731A408281704702460020B1F592
:10178000007F00D100BF13880B400BB1012000E0A7
:101790000020704770B50246002400230025002079
:1017A00040F66A16B14200D100BFC1F3421501F004
:1017B0001F03012606FA03F3012D02D19689334057
:1017C00006E0022D02D1168A334001E0968A3340AA
:1017D0000C12012606FA04F41688344013B10CB139
:1017E000012000E0002070BDF0B503460024002673
:1017F0000025002040F66A17B94200D100BF184604
:10180000C1F3421401F01F06012707FA06F5012C67
:1018100001D10C3004E0022C01D1103000E0143072
:101820001AB107682F43076002E00768AF430760FB
:10183000F0BD00002DE9F04786B005460E460024B5
:10184000A24600BFA1460027B08900B100BF2F46C5
:101850002C8A4CF6FF700440F08804432C82AC893B
:101860004EF6F3100440B08831890843718908436B
:101870000443AC81AC8A4FF6FF400440B089044376
:10188000AC8201A8FFF7DCFB1F48874202D1DDF8DC
:1018900010A001E0DDF80CA0A88900F4004040B1E0
:1018A0000AEBCA0000EB0A1031684900B0FBF1F8FE
:1018B00007E00AEBCA0000EB0A1031688900B0FBB0
:1018C000F1F86420B8FBF0F004012009642101FB69
:1018D0001089A88900F4004040B1322000EBC90013
:1018E000B0FBF1F000F00700044308E0322000EB09
:1018F00009106421B0FBF1F000F00F0004432C81CB
:1019000006B0BDE8F0870000003801400146888835
:10191000C0F308007047C1F308028280704700BF1F
:10192000FEE700000FB4054B10B503A9044A029866
:1019300000F0DAF810BC5DF814FB00004523000845
:101940007400002002E008C8121F08C1002AFAD162
:1019500070477047002001E001C1121F002AFBD12F
:10196000704700002DE9FF5F82B00021DDE90430FF
:10197000020DDDF840B0034318D044F61050A2F237
:10198000FF3242431514119801281FD0A5EB0B001C
:10199000401C5FEA000A4FF000064E4FDFF8389116
:1019A000B046504615D5CAF1000413E01198012441
:1019B0004AA3012801D16FEA0B010298119AC0E9EC
:1019C0000031C0E9024206B0BDE8F09FCBF1000053
:1019D000DFE704460021404A491842EB0450CDE9B4
:1019E000001012E0E00707D032463B464046494629
:1019F000FEF779FC8046894632463B46104619463A
:101A0000FEF771FC06460F466410002CEAD1DDE9B2
:101A10000401DDE90023BAF1000F06DAFEF763FCEA
:101A200042464B46FEF75FFC05E0FEF7CEFC424621
:101A30004B46FEF7CAFC04460E460022284BFEF732
:101A400071FE03D84FF0FF30014607E00022254B1E
:101A500020463146FEF7A0FBFEF74BFE102409E0BE
:101A6000002C0ADB0A220023FEF75DFD039B3032C7
:101A70001A55641E50EA0102F2D1641C039AC4F1A3
:101A800011031444119A012A03D0012208430DD1F5
:101A90000AE0084304D000204FF0110B119072E7C8
:101AA000A3EB0B056D1E0DE05B4504DD4FF000025E
:101AB00005F1010504E003DA4FF00002A5F101058C
:101AC000002AECD002981199C0E90231C0E9004522
:101AD00079E70000000014400000F03F30000000F3
:101AE0000000F0430000E03F2DE9FF4F95B09B461A
:101AF0008946064600250FE2252877D1002427468F
:101B0000F84A0121059400E0044316F8013F203B08
:101B100001FA03F01042F7D130782A2811D06FF083
:101B20002F033078A0F13002092A16D8059A44F024
:101B3000020402EB820203EB42021044761C059081
:101B4000EFE759F8042B0592002A03DA504244F4D7
:101B50000054059044F00204761C30782E2816D1EB
:101B600016F8010F44F004042A280DD06FF02F025C
:101B70003078A0F13003092B09D807EB870302EB7B
:101B80004303C718761CF3E759F8047B761C3078BA
:101B90006C280FD006DC4C2817D068280DD06A2896
:101BA00014D104E0742810D07A280FD10DE044F449
:101BB00000140AE044F4801401E044F44014727804
:101BC000824202D104F58014761C761C3078662897
:101BD0000BD013DC582877D009DC002875D04528B5
:101BE000F6D04628F4D047281AD19DE118E06328A2
:101BF00035D0642879D0652812D195E1702873D04A
:101C000008DC6728F1D069286FD06E280DD06F28C6
:101C100006D1B5E073282CD0752875D0782874D0FB
:101C20005A46179990476D1C75E1C4F3025002287B
:101C300009D003280DD0D9F8001004280DD00D606C
:101C400009F1040967E1D9F80010EA17C1E9005267
:101C5000F6E7D9F800100D80F2E70D70F0E719F8FB
:101C6000041B8DF8001000208DF80100EA460120C9
:101C700003E059F804AB4FF0FF3061074FF000016B
:101C800002D40DE008F101018846B9420FDA80451F
:101C9000F8DB1AF808100029F4D108E008F1010176
:101CA00088468142FADB1AF808100029F6D1059817
:101CB0005B46A0EB080721463846179A00F094FAD5
:101CC000284400EB080507E04DE029E10DE01AF893
:101CD000010B5A4617999047B8F10108F7D25B46B5
:101CE00021463846179A13E142E00A220092C4F3D3
:101CF00002524FF0000A022A08D059F804CB032AF6
:101D00004FEAEC710AD00DE029E02AE009F1070161
:101D100021F00702F2E802C1914609E00FFA8CFCBB
:101D20004FEAEC71042A03D14FFA8CFC4FEAEC71B4
:101D3000002907DA0A460021DCF1000C61EB020100
:101D40002D2202E0220504D52B228DF80420012249
:101D500003E0E20701D02022F7E7904659E00A218C
:101D600002E010220DE010214FF0000A00910BE07C
:101D700010224FF0000A44F004040827009203E008
:101D800008224FF0000A0092C4F30252022A05D042
:101D900059F804CB0021032A08D009E009F1070112
:101DA00021F00702F2E802C1914605E01FFA8CFC1F
:101DB000042A01D10CF0FF0C4FF00008220728D5AF
:101DC000702806D0009B83F0100353EA0A0305D065
:101DD0000EE040228DF80420012208E05CEA0102B6
:101DE00006D030228DF804208DF80500022290469E
:101DF000009B83F0080353EA0A030AD15CEA01025C
:101E000001D1620705D530228DF804204FF001087A
:101E10007F1E582804D034A003900EA802900DE035
:101E200036A0F9E753466046009AFEF77CFB8446ED
:101E30000398825C0298401E029002705CEA0100E6
:101E4000F0D1029806A9081A00F1200A600702D50D
:101E500024F4803400E00127574502DDA7EB0A0097
:101E600000E0002000EB0A01009005984144401A70
:101E70000590E00306D45B462146179A059800F0CA
:101E8000B3F90544002706E001A85A46C05D17993A
:101E900090476D1C7F1C4745F6DBE0030CD55B4685
:101EA0002146179A059800F09FF9054404E0302078
:101EB0005A46179990476D1C0099481E00900029BA
:101EC000F5DC08E0029802995A460078491C029114
:101ED000179990476D1CBAF10001AAF1010AF1DCD3
:101EE00065E10000092801003031323334353637DE
:101EF0003839616263646566000000003031323356
:101F000034353637383941424344454600000000F5
:101F100000F058F90544761C307800287FF4ECADC9
:101F200019B02846BDE8F08F620700D4062709F1F2
:101F3000070222F0070CFCE80223E14603F0004808
:101F40005FEA080C02D00FF2702C0DE05FEA045C2F
:101F500002D50FF2682C07E05FEAC47C02D00FF2D2
:101F6000602C01E0AFF2700C4FF0FF3823F000431B
:101F7000CDF850C065280CD006DC452809D046288D
:101F80001DD047283DD13DE0662818D067287ED176
:101F900038E00021112F01DB112000E0781CCDE991
:101FA000000106A90EA8FFF7DDFCDDE90F010E9A7E
:101FB00003910021009207F1010A04914DE04FF0D6
:101FC00000400097CDE9011006A90EA8FFF7CAFC52
:101FD000DDE90F0203920E9B11990022DDF80CA09F
:101FE0000093049211B9791C00EB010AB7EB0A00C7
:101FF00004D4C0F1FF3007F1010A0490AAEB0700F6
:10200000019044E0012F00DA01270021112F01DDAA
:10201000112000E03846CDE9000106A90EA8FFF71F
:10202000A1FCDDE90F010E9A0391002104910092B9
:10203000BA4621070CD40399514500DA8A46BAF111
:10204000010F05DD009AAAF10101515C302908D089
:10205000B84202DA10F1040F06DA0121CDE90110CD
:1020600015E0AAF10101E9E7002805DC0499014423
:102070000491AAEB000102E0411C514500DD8A46B3
:102080000499401A401C01904FF000400290200734
:1020900004D40198504501DBCDF8048000208DF870
:1020A0004F0002980DF14F07B0F1004F25D02B20C3
:1020B0000E9002984FF0020800280CDA404202907D
:1020C0002D200E9007E00A210298FEF716FA303113
:1020D000029007F8011DB8F10001A8F10108F2DC37
:1020E00002980028EFD1791E0E980870307800F021
:1020F000200040F0450007F8020D12A8C01B00F1B7
:1021000007081498007800B1012000EB0A0101983B
:1021100001EBE07105984144401A401E0590E00330
:1021200006D45B462146179A059800F05DF80544F1
:102130001498007818B15A46179990476D1CE0031F
:1021400024D55B462146179A059800F04DF80544C2
:102150001CE00498002807DBDDE90301884203DD69
:102160000098405C179901E0179930205A46904733
:10217000049805F10105401C04900198401E01904F
:1021800004D12E205A46179990476D1CBAF10001D0
:10219000AAF1010ADDDC05E017F8010B5A46179990
:1021A00090476D1CB8F10001A8F10108F4DC5B4612
:1021B0002146179A0598ABE62D0000002B00000081
:1021C000200000002DE9F041044600251E46174678
:1021D000880404D405E039462020B0476D1C641EF5
:1021E000F9D52846BDE8F0812DE9F04104460025E7
:1021F0001E469046C80301D5302700E020278804FA
:1022000004D505E041463846B0476D1C641EF9D53B
:102210002846BDE8F08100001CB54FF4007010495D
:1022200002230022CDE900100E490F4800F0E2FB26
:102230004FF400700D4900231A46CDE900100C49F7
:102240000C4800F0D7FB4FF400700B49012300222B
:10225000CDE9001009490A4800F0CCFB1CBD000084
:10226000280600206D2500083805002028080020D9
:10227000C923000888050020280A002071250008CD
:10228000D80500202DE9FF5F2348006838B90120F8
:1022900021490860002021490860BDE8FF9F1F48D0
:1022A0000068642809D11E4800681E4908600020A3
:1022B0001B49086000F064FC2CE0184800686421A9
:1022C000B0FBF1F201FB120020BB16480068FEF7DC
:1022D000EBF804460D4612480068FEF7E5F8804624
:1022E0000022114BFDF7FFFF064622462B46FEF764
:1022F0006CF800220D4BCDE90001FDF7F4FF82469A
:102300000022094BFDF7ECFFCDE90201FEF7D9F8F9
:102310000749086000BFC0E75000002048000020C7
:102320004000002044000020000059400000F03F21
:102330004C00002000BF024800680028FBD0704716
:102340005000002070B504460D46E0B2FEF73EFF97
:10235000204670BD10B54FF4A060FEF743FCFEF7B9
:1023600071FBFEF71DFAFEF747FB0020FEF788FB26
:1023700001214FF4E150FEF79DFBFEF7D3FCFEF781
:10238000C5FD4FF41650FEF7C7FEFEF72FFF642180
:102390004FF4E150FFF77AF810BD00000020054926
:1023A0000860054908600549086005490860054955
:1023B000086070474C0000204000002044000020CE
:1023C000480000205000002005224949494800F0FB
:1023D000D6F900BF0020FEF795FA47490870084675
:1023E0000078FF2803D00022424800F0D9F9424883
:1023F0000078B0B94148006898B901203F490860A9
:102400004FF49660FEF73EFF3D49086040F6FC0041
:10241000FEF79EFB3B490860084600683A490860A1
:1024200063E03848006800285FDD33480078012801
:102430000FD134480068C83032490860098888B232
:10244000FEF786FB2F490860084600682E490860A1
:102450004BE02948007802280FD12A480068C83884
:1024600028490860098888B2FEF772FB2549086090
:10247000084600682449086037E01F4800780328B0
:102480000BD11F48006864301D490860098888B274
:10249000FEF7F8FE1A49086027E01748007804287C
:1024A0000BD117480068643815490860098888B25C
:1024B000FEF7E8FE1249086017E01048006801289E
:1024C00013D10D48007880B900200C490860FEF750
:1024D0003FFB0C4908604FF49660FEF7D3FE0849B5
:1024E00008600848006808490860FEF7C7FC71E703
:1024F0002405002000050020680000206C0000205A
:102500006000002064000020700000204060006037
:10251000704700001CB5FFF71DFF00F015FB0D48CC
:1025200000F011F9FFF73AFF80200B491F2300222A
:10253000CDE9001009490A4800F05CFA0848094949
:10254000086000F043FA0849086000F0EFFA002044
:102550001CBD00005C020020780C0020112E000839
:10256000280C0020340000203000002000BFFEE7CF
:1025700008B500BF03226946074800F05DF904462C
:102580004CB900980568294604A0FFF7CBF9022052
:1025900000F0FAF900BFEDE70005002025640D0A00
:1025A0000000000001238B4002689A4302607047DC
:1025B00000B50146087818B10878134A105C00BDD0
:1025C000088800F47F4030B10888C0F307200E4A25
:1025D000105C0830F3E7086800F47F0030B1086849
:1025E000C0F30740084A105C1030E8E7086800F0C4
:1025F0007F4028B10868000E034A105C1830DEE7FF
:1026000000F007F8DBE70000442E0008002101601D
:1026100070472020704701238B4002681A430260F4
:10262000704770B504460D4600202060201D00F064
:102630008AF870BD2DE9F04104460D46164600F0BB
:10264000B9F90746E16B081D04F10C0100F080F8B0
:102650000020E06325646664206A20F47F00206225
:10266000384600F0ADF9BDE8F0812DE9F0470546A8
:102670000C4616461F46DDF8208000F09BF9814687
:10268000206A38432062E5632664012060642046A6
:1026900000F02EFA04F10C01281D00F041F8B8F109
:1026A000000F03D04146204600F05EF9484600F096
:1026B00087F9BDE8F08770B5044600F07BF906465F
:1026C000201D00F037F80546304600F079F928461D
:1026D00070BD2DE9F04705460E46174600F06AF931
:1026E0008146281D00F03EF88046B8F1000F11D059
:1026F000A8F10C040020E06326646764206A20F4DB
:102700007F002062E06910B1204600F0E3F9204626
:1027100000F084FA484600F053F92046BDE8F087FF
:10272000486002680A600268516001608268521C59
:1027300082607047014688687047014600208A68B9
:1027400002B14868704740600060002181607047B6
:10275000D1E900325A60D1E900231A608268521E22
:1027600082607047014600208A683AB14868426832
:10277000116042684A608A68521E8A60704770B56C
:1027800004460E4615464FF400312046FFF749FF38
:102790002662002020616561A061E06170BD0000DB
:1027A0002DE9F04104460D46174600F003F9804636
:1027B0002046FFF780FF70B1002211462046FFF748
:1027C00088FF06461B49706A0968496A88422CD20C
:1027D00000F002FA29E0D4E90401884205D340461A
:1027E00000F0EEF80420BDE8F08107F0010068B1C8
:1027F000A06918B96069401EA06102E0A069401E8E
:10280000A061A169206A40F821500BE0E169481CF1
:10281000E061206A40F821506169E069884201D393
:102820000020E0612069401C2061404600F0C8F8AB
:102830000020D8E72C000020F8B504460D461646C7
:1028400000F0B8F807462069A0B12069401E206159
:10285000A169481CA061206A50F821002860D4E9D1
:102860000510884201D30020A061384600F0A8F886
:102870000020F8BD4FF4003300220948009601689B
:102880002046FFF7F2FE384600F09AF800F0A4F96F
:1028900003480068006C286001480068406CE8E765
:1028A0002C00002070B504460E4615464FF48031CA
:1028B0002046FFF7B6FE65610DB9266105E0AE4220
:1028C00001D9284600E03046206170BD70B504464D
:1028D00000F070F806462046FFF7EDFE70B10022CA
:1028E00011462046FFF7F5FE05460C49686A09685F
:1028F000496A884201D200F06FF90AE02069401C61
:102900002061606928B1D4E90401884201D9606975
:102910002061304600F054F870BD00002C0000200B
:10292000F8B504460D4600F045F80646206938B172
:102930002069401E2061304600F042F80020F8BDBA
:102940004FF4803300220748009501682046FFF7C6
:102950008CFE304600F034F800F03EF90148006883
:10296000406CECE72C00002070B504460D46E56194
:10297000211D0448FFF7D4FE206A40F002002062C7
:1029800070BD00005C02002070B5044600F012F833
:102990000546214606480068FFF7E6FF0448006840
:1029A00000F0A6F800F018F9284600F009F870BD0C
:1029B0002C00002000BFEFF31081084672B670476C
:1029C00000BF80F3108800BF7047000070B5074853
:1029D000FFF7EEFD044604EB4401054A02EB8100DB
:1029E000FFF7ABFE0546A5F10C0070BD3C000020D2
:1029F000DC0000202DE9F0470446884691469A46BF
:102A0000DDE908676661A76139463046FDF7B9FB25
:102A1000B80806EB80054FF08071281F054601605D
:102A2000281F0546C0F800801421281F05460160B4
:102A30001221281F054601600321281F0546016059
:102A40000221281F054601600121281F054601605B
:102A5000281F0546C0F800901121281F0546016077
:102A60001021281F054601600921281F0546016025
:102A70000821281F054601600721281F054601601F
:102A80000621281F054601600521281F0546016013
:102A90000421281F0546016025600020E061C4F87C
:102AA00024A00A20E062206A20620020A062206345
:102AB000606384F83800E0632064606404F10C0013
:102AC000FFF724FD201DFFF721FD204600F0A6F8AA
:102AD000BDE8F08710B50446211D0448FFF738FE15
:102AE000206A20F00200206210BD00005C0200207D
:102AF00010B50446616A01EB41010A4A02EB81000C
:102B000004F10C01FFF724FE616A01EB4101054A63
:102B100002EB8100FFF70EFE18B90348616AFFF768
:102B200041FD10BDDC0000203C00002010B500205D
:102B3000FDF7E9FAFF2003490870C80601491E396C
:102B4000086010BD22ED00E010B500240020094906
:102B500008700948FFF75AFD00BF07E004EB440185
:102B6000064A02EB8100FFF7EEFD641C202CF5DB2A
:102B700010BD0000380000203C000020DC000020D8
:102B800010B5FFF717FF044608480078002808DD55
:102B900006480078401EC0B20449087008B900F029
:102BA0001BF82046FFF70CFF10BD00003800002086
:102BB00010B5FFF7FFFE044606480078FF2804DA48
:102BC00004480078401C034908702046FFF7F8FECF
:102BD00010BD00003800002070B5FFF7EBFE054681
:102BE0000B480078002803DD2846FFF7E9FE70BD9A
:102BF000FFF7ECFE044607480068844203D006480D
:102C0000046000F021F82846FFF7DAFE00BFEEE787
:102C1000380000202C0000203000002010B50446B1
:102C2000616A01EB4101064A02EB810004F10C01EB
:102C3000FFF776FD0348616AFFF7EDFC10BD000069
:102C4000DC0000203C0000204FF08050014908606B
:102C50007047000004ED00E070B5FFF7ABFE0646DC
:102C60002B48456812E02C1FE069401EE06160B906
:102C7000E06B20B1012200212046FFF7DBFC20465B
:102C8000FFF728FF2046FFF7C9FF6D6820488542FF
:102C9000E9D120480068C06A401E1E490968C86220
:102CA00030BB1C490968496A01EB41011A4A02EB31
:102CB0008100FFF73FFD01281AD916490968496AC2
:102CC00001EB4101144A02EB8100FFF74BFD114972
:102CD0000968496A01EB41010F4A02EB81000D4985
:102CE00009680C31FFF71CFD0A200A490968C8620F
:102CF0000A480068401C09490860FFF7C3FA3046DB
:102D0000FFF75EFE00F05CF8FFF766FF70BD0000A5
:102D10005C0200202C000020DC0000204800002085
:102D200070B505466E681CE03446206918B120690C
:102D3000401E2061A0B9022084F82000D4E90510CB
:102D40008847012084F82000E06810B1E068206125
:102D500006E021462846FFF7FBFC032084F820000C
:102D60007668AE42E0D170BD1CB50D48FFF7EBFCB4
:102D70000C48FFF7E8FC012211460B48FFF792FDD3
:102D8000002211460948FFF78DFD802008490123E4
:102D9000084ACDE9001008490848FFF72BFE1CBD82
:102DA000B8040020C4040020D0040020E80400205F
:102DB000B802002078563412E52D00086802002081
:102DC00010B5FFF7F7FD04460448FFF7A9FF2046BA
:102DD000FFF7F6FD0248FFF779FD10BDB8040020AB
:102DE000E804002000BF00210648FFF799FD0021FC
:102DF0000548FFF795FD0548FFF792FF0248FFF7EA
:102E000065FDF0E7E8040020D0040020C4040020A1
:102E1000FFF7CEFE0A20FEF7B3FAFFF7A5FFFFF794
:102E2000FBF9FFF787FA00BFFFF7C4FD044604482B
:102E30000068401C024908602046FFF7C1FDF3E727
:102E400040000020FF00010002000100030001001B
:102E50000200010004000100020001000300010063
:102E60000200010005000100020001000300010052
:102E70000200010004000100020001000300010043
:102E80000200010006000100020001000300010031
:102E90000200010004000100020001000300010023
:102EA0000200010005000100020001000300010012
:102EB0000200010004000100020001000300010003
:102EC00002000100070001000200010003000100F0
:102ED00002000100040001000200010003000100E3
:102EE00002000100050001000200010003000100D2
:102EF00002000100040001000200010003000100C3
:102F000002000100060001000200010003000100B0
:102F100002000100040001000200010003000100A2
:102F20000200010005000100020001000300010091
:102F30000200010004000100020001000300010082
:102F4000020001000000000000000000000000007E
:102F500000000000000000F8000000000000003346
:102F60003000000000100C06100C060000000000ED
:102F70000000000040C07840C0784000043F0404D6
:102F80003F040400007088FC08300000001820FF97
:102F9000211E0000F008F000E018000000211C03D2
:102FA0001E211E0000F00888700000001E2123244E
:102FB0001927211010160E0000000000000000006C
:102FC00000000000000000E01804020000000007FC
:102FD0001820400000020418E00000000040201803
:102FE00007000000404080F0804040000202010FD6
:102FF00001020200000000F0000000000101011FBA
:1030000001010100000000000000000080B070001D
:1030100000000000000000000000000000010101AD
:10302000010101010000000000000000003030003C
:103030000000000000000000806018040060180616
:103040000100000000E010080810E000000F102050
:1030500020100F00001010F8000000000020203F9A
:103060002020000000700808088870000030282424
:1030700022213000003008888848300000182020C5
:1030800020110E000000C02010F8000000070424EA
:10309000243F240000F8088888080800001921202F
:1030A00020110E0000E0108888180000000F112089
:1030B00020110E0000380808C83808000000003F42
:1030C000000000000070880808887000001C2221A1
:1030D00021221C0000E010080810E000000031224E
:1030E00022110F00000000C0C000000000000030EE
:1030F0003000000000000080000000000000806040
:1031000000000000000080402010080000010204C0
:1031100008102000404040404040400004040404A7
:103120000404040000081020408000000020100863
:1031300004020100007048080808F0000000003098
:1031400036010000C030C828E810E0000718272426
:1031500023140B000000C038E0000000203C2302D4
:103160000227382008F8888888700000203F202037
:1031700020110E00C0300808080838000718202069
:103180002010080008F808080810E000203F202060
:1031900020100F0008F88888E8081000203F202041
:1031A0002320180008F88888E8081000203F200035
:1031B00003000000C030080808380000071820206D
:1031C000221E020008F808000008F808203F21012C
:1031D00001213F20000808F8080800000020203FD7
:1031E0002020000000000808F8080800C080808047
:1031F0007F00000008F888C028180800203F200140
:103200002638200008F8080000000000203F202099
:103210002020300008F8F800F8F80800203F003FB0
:10322000003F200008F830C00008F808203F2000C8
:1032300007183F00E01008080810E0000F102020D9
:1032400020100F0008F808080808F000203F2101AE
:1032500001010000E01008080810E0000F18242405
:1032600038504F0008F8888888887000203F200078
:10327000030C30200070880808083800003820212E
:1032800021221C00180808F8080818000000203F38
:103290002000000008F808000008F808001F20209F
:1032A00020201F000878880000C838080000073870
:1032B0000E010000F80800F80008F800033C0700C1
:1032C000073C0300081868808068180820302C0329
:1032D000032C30200838C800C83808000000203F00
:1032E0002000000010080808C838080020382621EF
:1032F00020201800000000FE020202000000007FF3
:1033000040404000000C30C0000000000000000100
:103310000638C00000020202FE00000000404040EB
:103320007F00000000000402020204000000000010
:10333000000000000000000000000000808080808D
:103340008080808000020204000000000000000075
:10335000000000000000808080800000001924220E
:1033600022223F2008F8008080000000003F11204A
:1033700020110E000000008080800000000E11204F
:1033800020201100000000808088F800000E11202D
:1033900020103F200000808080800000001F22223B
:1033A00022221300008080F0888888180020203FA7
:1033B000202000000000808080808000006B9494BA
:1033C0009493600008F8008080800000203F210076
:1033D00000203F2000809898000000000020203F3F
:1033E00020200000000000809898000000C080802D
:1033F000807F000008F8000080808000203F2402C9
:103400002D302000000808F8000000000020203FB8
:10341000202000008080808080808000203F20006D
:103420003F20003F8080008080800000203F2100FE
:1034300000203F200000808080800000001F2020AE
:1034400020201F00808000808000000080FFA120DD
:1034500020110E000000008080808000000E1120EE
:1034600020A0FF80808080008080800020203F217D
:103470002000010000008080808080000033242430
:1034800024241900008080E0808000000000001FDC
:10349000202000008080000000808000001F20208D
:1034A00020103F20808080000080808000010E304E
:1034B0000806010080800080008080800F300C03AF
:1034C0000C300F0000808000808080000020312EB2
:1034D0000E312000808080000080808080818E708E
:1034E0001806010000808080808080000021302C40
:1034F0002221300000000000807C02020000000059
:10350000003F404000000000FF00000000000000FD
:10351000FF0000000002027C800000000040403FED
:103520000000000000060101020204040000000087
:103530000000000054350008000000207800000062
:1035400044190008CC350008780000200012000063
:103550005419000800A24A04000000000000000006
:103560000102030406070809000000000102030429
:10357000010203040607080902040608000000000F
:10358000000000000000000000000000000000003B
:10359000000000000000000000000000000000002B
:1035A000000000000000000000000000010000001A
:1035B00000000000B004000000000000FF00000058
:0C35C000000000000000000000000000FF
:04000005080000ED02
:00000001FF
