:020000040800F2
:100000007816002051010008190C00082509000885
:10001000250B0008C50600089B1D00080000000015
:100020000000000000000000000000006D15000846
:10003000C90600080000000021010008A9180008F6
:100040006B0100086B0100086B0100086B010008E0
:100050006B0100086B0100086B0100086B010008D0
:100060006B0100086B0100086B0100086B010008C0
:100070006B0100086B0100086B0100086B010008B0
:100080006B0100086B0100086B0100086B010008A0
:100090006B0100086B0100086B0100086B01000890
:1000A0006B0100086B0100086B0100086B01000880
:1000B0006B0100086B010008111900086B010008B2
:1000C0006B0100086B0100086B0100086B01000860
:1000D0006B010008451B00086B0100086B0100085C
:1000E0006B0100086B0100086B010008DFF80CD001
:1000F00000F0D6FA00480047C1200008781600201A
:10010000EFF30980704780F309887047EFF30880A8
:10011000704780F30888704740BA7047C0BA70478C
:10012000EFF3098020B120E9F00F07490968086062
:10013000054806490A6802601068B0E8F00F80F3CD
:1001400009884EF0040E7047280000202C00002083
:100150000648804706480047FEE7FEE7FEE7FEE761
:10016000FEE7FEE7FEE7FEE7FEE7FEE7B118000860
:10017000ED000008D2B201E000F8012B491EFBD2CD
:1001800070470022F6E710B513460A4604461946A2
:10019000FFF7F0FF204610BD10B5002200E0521C12
:1001A000835C8C5CA34201D1002BF8D1D8B2E1B2C0
:1001B000401A10BD2DE9FE4F804681EA0300C00FB2
:1001C0000C46009021F0004123F00045B8EB0200FE
:1001D000A94105D24046214690461C460B460246A0
:1001E00023F00040104347D0270DC7F30A00C3F3A4
:1001F0000A510290401A019040286BDAC3F31300B1
:1002000040F4801B0098924620B10023D2EB030AF1
:1002100063EB0B0B01985946C0F14002504600F0C9
:100220007AF906460D4650465946019A00F092F971
:1002300010EB08006141002487EA115284EAE77359
:100240001A4340D0009A62B3019A012A4FEA07523A
:1002500015DC001B61EB02014FF0004202EA07527D
:10026000CDE90042001C41F5801132462B4600F0DA
:10027000C9F903B0BDE8F08F40462146F9E7001BFD
:1002800061EB0201001C41F5801300185B4120184E
:10029000A2F5001747EB030140EAD570B6196D418E
:1002A00011E06D084FEA360645EAC0754FEA07527D
:1002B000001B61EB0201001C41F5801149084FEA67
:1002C00030000019514132462B4603B0BDE8F04FD3
:1002D00000F089B90098012240000023D0EB02020F
:1002E00063EBE073009821464FEAE074B8EB00003E
:1002F00061EB0401E9E783F000435BE781F0004133
:1003000058E72DE9FE4F81EA030404F0004421F090
:10031000004100944FF0000B23F0004350EA010429
:100320005ED052EA03045BD0C3F30A54C1F30A550A
:100330002C44A4F2F3340194A0FB0254C1F3130142
:1003400041F48011C3F3130343F4801301FB02440F
:1003500000FB034E840A970A44EA815447EA835714
:10036000A4FB076802958D0A05FB07854FEA932CCD
:1003700004FB0C542705029D4FEA065847EA16373E
:10038000B5EB08056EEB070C870E920E47EA811756
:1003900042EA8312A7FB0201B6EB0B0164EB0004F7
:1003A0002B0D43EA0C335E1844EB1C50DA465146E1
:1003B000E7FB0201C5F313044FEA0B3343EA14537E
:1003C0004FEA0432019C43EA0603A4F10C040294B0
:1003D000009CCDE900B400F015F903B0BDE8F08F42
:1003E00000200146F9E72DE9F04D81EA030404F00D
:1003F000004B21F0004514464FF0000A23F0004165
:1004000050EA050220D054EA01021DD0C5F30A5774
:100410000246C5F31303C1F31300C1F30A5640F4B7
:10042000801543F48013A7EB0608101BD64608F28C
:10043000FD3873EB050002D308F1010801E09218C2
:100440005B41B8F1000F03DA00200146BDE8F08DF2
:1004500000204FF48011064684460EE0171B73EB14
:10046000050705D3121B63EB050306434CEA010C99
:1004700049084FEA300092185B4150EA0107EDD17C
:1004800052EA030012D082EA040083EA050108431D
:1004900005D0101BAB4106D20122002306E000224A
:1004A0004FF0004302E06FF0010253101AEB060018
:1004B0004CEB085110EB0A0041EB0B01BDE8F04D8D
:1004C00000F091B80EB540F2334102910021CDE920
:1004D00000110A460B4600F095F803B000BD01F08C
:1004E000004330B421F0004150EA010206D00A0D69
:1004F000A2F56072C1F31301002A02DC30BC0020B7
:100500007047440F44EAC104C100E01830BC00EB5E
:10051000C25000F031B8202A04DB203A00FA02F180
:10052000002070479140C2F1200320FA03F31943E1
:1005300090407047202A04DB203A21FA02F0002183
:10054000704721FA02F3D040C2F1200291400843E3
:1005500019467047202A06DBCB17203A41FA02F0F1
:1005600043EAE07306E041FA02F3D040C2F1200210
:1005700091400843194670470029A8BF7047401CA6
:10058000490008BF20F00100704710B4B0FA80FCA9
:1005900000FA0CF050EA010404BF10BC704749B1E6
:1005A000CCF1200421FA04F411FA0CF118BF012156
:1005B00021430843A3EB0C01CB1D4FEA00614FEA36
:1005C000102042BF002010BC704700EBC350104405
:1005D0000029A4BF10BC7047401C490008BF20F090
:1005E000010010BC704710B5141E73F1000408DA46
:1005F000401C41F1000192185B411A4301D120F0E7
:10060000010010BD2DE9F04D92469B4611B1B1FAA3
:1006100081F202E0B0FA80F220329046FFF77BFFD1
:1006200004460F4640EA0A0041EA0B0153465A4687
:10063000084313D0114653EA010019D0C8F1400213
:100640005046FFF777FF05460E465046594642464C
:10065000FFF761FF084305D0012004E0204639463A
:10066000BDE8F08D0020054346EAE0762C43374391
:100670000A986305E40AA0EB08000022FD0A44EA98
:1006800047540A3002D500200146E9E70105101958
:100690006941DDE9084500196941BDE8F04DA2E76F
:1006A000064C074D06E0E06840F0010394E80700BF
:1006B00098471034AC42F6D3FFF71CFDC434000851
:1006C000E434000800BFFEE77047000008B50121D0
:1006D000042000F0D1FE0820ADF8000004208DF8C1
:1006E000030003208DF802006946024800F004F878
:1006F00008BD0000000801402DE9F0410246002538
:100700000026002000230024002791F803C00CF0ED
:100710000F0591F803C00CF0100CBCF1000F03D0D2
:1007200091F802C04CEA050591F800C0BCF1000F39
:1007300031D0146800202BE04FF0010C0CFA00F3CC
:10074000B1F800C00CEA03069E4220D183004FF0AE
:100750000F0C0CFA03F7BC4305FA03FC4CEA040443
:1007600091F803C0BCF1280F06D14FF0010C0CFA30
:1007700000FCC2F814C00AE091F803C0BCF1480FB5
:1007800005D14FF0010C0CFA00FCC2F810C0401C5F
:100790000828D1D31460B1F800C0BCF1FF0F34DDDC
:1007A000546800202EE000F1080C4FF0010808FA10
:1007B0000CF3B1F800C00CEA03069E4221D183007D
:1007C0004FF00F0C0CFA03F7BC4305FA03FC4CEA9C
:1007D000040491F803C0BCF1280F05D100F1080C06
:1007E00008FA0CF8C2F8148091F803C0BCF1480F65
:1007F00007D100F1080C4FF0010808FA0CF8C2F814
:100800001080401C0828CED35460BDE8F081024619
:10081000002093680B400BB1012000E000207047DE
:10082000416170470AB1016100E041617047000019
:1008300010B5044614B101203749087036480078D5
:10084000002845D04FF400613448FFF7E0FFA0B125
:1008500010213348FFF7DBFF78B14FF480512F4868
:10086000FFF7D5FF48B140212D48FFF7D0FF20B159
:1008700080212B48FFF7CBFF50BB022001F09CFEEC
:100880000020254908704FF400612448FFF7BFFF9E
:1008900008B9002010BD10212148FFF7B8FF08B9A2
:1008A0000120F7E74FF480511C48FFF7B0FF08B96B
:1008B0000220EFE740211A48FFF7A9FF08B90320FB
:1008C000E8E780211648FFF7A2FF10BB0420E1E70C
:1008D0004FF400611148FFF79AFF012819D1102148
:1008E0000F48FFF794FF012813D101030B48FFF7CE
:1008F0008EFF01280DD140210948FFF788FF01280C
:1009000007D180210648FFF782FF012801D1024963
:100910000870FF20BEE700005800002000080140DA
:10092000000C014000BFFEE770B502460024002520
:1009300000230020958A138B1B0445EA030626F04A
:100940007F4404EA01068E4201D1012000E000202C
:1009500070BD21B1028842F00102028004E00288E9
:100960004FF6FE731A400280704721B1028842F4AC
:100970008072028004E002884FF6FF631A40028012
:10098000704721B1028842F40072028004E00288BC
:100990004FF6FF531A400280704700002DE9F043E4
:1009A00085B004460D460026B1460427DFF8CC800A
:1009B000A6884FF6C0700640684600F06DFDDDF871
:1009C00008802F48B8FBF0F01FFA80F946EA0906C4
:1009D000A68020884FF6FE71084020800026294915
:1009E000286888420CD828684000B8FBF0F087B22D
:1009F000042F00DA04273E4309F10100208427E098
:100A0000E8884BF6FF71884206D1286800EB400069
:100A1000B8FBF0F087B209E0286800EBC00101EBF9
:100A20000010B8FBF0F087B247F48047C7F30B0023
:100A300008B947F0010747F4004006434FF49670A9
:100A400009FB00F04FF47A7190FBF1F0401C208418
:100A5000A683208840F00100208026884FF6F530DC
:100A60000640A8886989084306432680A889298901
:100A70000843208105B0BDE8F083000000127A0031
:100A800040420F00A086010012B141F0010102E0D6
:100A90004FF6FE73194001827047018270470000D3
:100AA00008B501210C2000F0E7FCF020ADF80000B3
:100AB00048208DF8030003208DF80200694609489C
:100AC000FFF71AFE4FF4C050ADF8000048208DF833
:100AD000030003208DF8020069460348FFF70CFE6F
:100AE00008BD0000000C01400008014008B50121CC
:100AF000102000F0C1FC4FF40050ADF800001020B1
:100B00008DF8030003208DF8020069460448FFF7C2
:100B1000F3FD4FF400510248FFF782FE08BD0000CC
:100B20000010014000BFFEE738B504464FF4004016
:100B3000ADF8000010208DF8030003208DF80200AE
:100B400069460548FFF7D8FD22464FF400410248A8
:100B5000FFF768FE38BD00000010014030B589B0D5
:100B600005460C460121084600F076FC01210420D0
:100B700000F082FC18208DF823000120ADF8200041
:100B800003208DF8220008A91A48FFF7B5FD4FF0A1
:100B9000804000F026FF0020ADF81A00ADF81600E6
:100BA000681E80B2ADF81800601E80B2ADF8140067
:100BB00000208DF81C0005A94FF0804000F070FF68
:100BC00001A800F061FF6020ADF804000020ADF83E
:100BD0000C000120ADF806000020ADF80A0001A9C4
:100BE0004FF0804000F004FF0121880700F0D3FEA1
:100BF00009B030BD0008014010B5044641F2301084
:100C0000844200DD00E02046044621464FF080404B
:100C100000F044FF204610BD7047000070B5002171
:100C200000230F22C47804B3154C246804F4E06454
:100C3000C4F5E064210AC1F10403CA40447804FA0F
:100C400003F184781440214309010E4C0678A15524
:100C5000047804F01F050124AC4005786D11AD0047
:100C600005F1E025C5F8004109E0047804F01F050E
:100C70000124AC40044D0678761145F8264070BD3D
:100C80000CED00E000E400E080E100E002490143F7
:100C9000024A1160704700000000FA050CED00E008
:100CA00000200CE0002106E00022064B03EBC013FD
:100CB0005A544A1CD1B28029F6DB421CD0B2082813
:100CC000F0DB7047FC0400202DE9F04304460D469C
:100CD00016461F46284638E0224631E0002A2DDB22
:100CE0007F2A2BDC002829DB3F2827DC4FEAE07C29
:100CF00000EB5C7C4FEAEC0CDFF8588008EBCC1C76
:100D00001CF802C003464FEAE07800EB58784FEA3F
:100D1000E808A0EBC8094FF0010808FA09F82CEA26
:100D2000080C01464FEAE07800EB58784FEAE808F3
:100D3000DFF8209009EBC81808F802C0511C0AB26D
:100D4000A1199142CADC411C08B2E9198142C3DCF5
:100D5000BDE8F083FC04002000B585B00121082027
:100D600000F08AFB0121480500F076FB1C208DF87D
:100D700013004FF44070ADF8100003208DF81200FE
:100D800004A91648FFF7B8FC0121084600F074FBDF
:100D900000BF1349486840F0E06040F0020048603E
:100DA00000BF0020ADF804000E4800904BF6FF7025
:100DB000ADF806000815ADF80A000001ADF80C000A
:100DC0001120ADF8080069460748FFF7E7FD01214B
:100DD0000548FFF7BEFD05B000BD0000000C014056
:100DE00000000140A08601000054004010B5FFF74C
:100DF000B3FF01F023FA44F6206000E0401E002813
:100E0000FCDCAE2000F0A6FAD52000F0A3FA80208A
:100E100000F0A0FAA82000F09DFA3F2000F09AFA16
:100E2000D32000F097FA002000F094FA402000F060
:100E300091FAC02000F08EFAA02000F08BFADA20A0
:100E400000F088FA122000F085FA812000F082FA82
:100E5000CF2000F07FFAD92000F07CFAF12000F0DA
:100E600079FADB2000F076FA302000F073FAA42043
:100E700000F070FAA62000F06DFA8D2000F06AFAFA
:100E8000142000F067FAAF2000F064FAFFF708FFC3
:100E900000F04CFA10BD10B50246012000E05043AE
:100EA0000B1EA1F10101FAD110BD70B505460C462B
:100EB00045F0B00000F04EFA102141EA141000F0A5
:100EC00049FA04F00F0000F045FA70BDF8B5064687
:100ED0000F4614461D46082D0CD1A4F120000E49E2
:100EE00001EB00101023082239460090304600F034
:100EF00047F80FE0062D0DD1A4F1200000EB4000D3
:100F0000064901EB4000082306223946009030468E
:100F100000F036F8F8BD0000742B000864310008BA
:100F20002DE9F04706468A4691461F46DDF82080A7
:100F3000002421E0381B411E1020FFF7ACFFB9FB55
:100F4000F0F000F00F050A2D0ADA05F13001CAB2FF
:100F500004FB086108B243465146FFF7B7FF09E0BA
:100F600005F13701CAB204FB086108B24346514695
:100F7000FFF7ACFF601CC4B2BC42DBDBBDE8F0870E
:100F80002DE9FF4F80460E469146DDF834B000252E
:100F900000244A4631464046039BFFF795FE00BFBA
:100FA0005EE0002558E008EB0500002852DB08EB66
:100FB00005007F284EDC3046F11706EB5171C91051
:100FC0000FB2F11706EB5171C910A6EBC10A002E42
:100FD00005DA781E07B20AF108000FFA80FA38190C
:100FE000002817DB3819072814DC3819224901EBCF
:100FF000C01008EB0501405C04FB09511BF801100F
:1010000001FA0AF1084339191B4A02EBC11108EB36
:10101000050288543819401C00281BDB3819401C75
:10102000072817DC3819401C134901EBC01008EBE6
:101030000501405C04FB09511BF80110CAF10802CC
:10104000114108433919491C0B4A02EBC11108EB45
:1010500005028854681CC5B24D45A4DB601CC4B2AF
:101060000399481EC11700EB5171012202EBE10107
:10107000A14296DCBDE8FF8FFC0400202DE9F0477B
:101080000646894617461D46DDF82080002417E0F5
:10109000281B411E0A20FFF7FEFEB7FBF0F00A21D5
:1010A000B0FBF1F201FB120000F1300A04FB086111
:1010B00008B2434652464946FFF708FF601CC4B2D7
:1010C000AC42E5DBBDE8F08710B5082318A200218B
:1010D000084600F049F8082317A20021502000F02C
:1010E00043F8082316A21021002000F03DF8082341
:1010F00015A22021002000F037F8082314A20021B7
:10110000402000F031F8082312A20021702000F0E6
:101110002BF8082310A21021402000F025F8082306
:101120000FA22021402000F01FF800F0FFF810BDB2
:101130004F4E2F4F464600004B65793A00000000A5
:10114000536572766F3A00004D6F746F723A00000B
:101150003000000032353500313230300000000000
:1011600030303030000000002DE9FE4F07468A463F
:10117000144698460025AB460026CBE0605D00F0A3
:10118000800058B94FF0010B2846691C8DB2205CD5
:101190008DF8040000208DF805006BE0605D00F024
:1011A000E000C02814D14FF0020B2846691C8DB214
:1011B000205C8DF80400605D00B9AFE02846691C32
:1011C0008DB2205C8DF8050000208DF8060051E0FE
:1011D000605D00F0F000E0281DD14FF0030B2846C1
:1011E000691C8DB2205C8DF80400605D00B995E04B
:1011F0002846691C8DB2205C8DF80500605D00B941
:101200008CE02846691C8DB2205C8DF80600002019
:101210008DF807002EE0605D00F0F800F02826D180
:101220004FF0040B2846691C8DB2205C8DF8040039
:10123000605D00B972E02846691C8DB2205C8DF8B3
:101240000500605D00B969E02846691C8DB2205C2C
:101250008DF80600605D00B960E02846691C8DB21B
:10126000205C8DF8070000208DF8080002E0681C63
:1012700085B24FE0BBF1010F0BD19DF80420B919E5
:1012800008B243465146FFF721FE06EB080086B23E
:101290003FE04FF000090EE009EB890101EB491135
:1012A000204A881801A9FEF777FF00B90EE009F17E
:1012B00001001FFA80F909EB890101EB4911194A74
:1012C000881819A1FEF768FF0028E5D100BFB8F122
:1012D000080F12D109EB890000EB491011490844AD
:1012E000401DB919009008B210231A465146FFF765
:1012F00047FE06F1100086B20BE0B8F1060F08D1E8
:10130000B91908B206233F225146FFF7DFFDB01D91
:1013100086B200BF605D00287FF430AF00BFBDE83B
:10132000FE8F00009E3300080000000010B500246E
:101330000BE000212046FFF7B8FD054901EBC41082
:10134000802100F045F8601CC4B2082CF1DB10BD10
:10135000FC04002010B5044601211A48FFF705FBE4
:1013600000BF19491748FFF7DFFA0128F9D1002219
:1013700078211448FFF788FB00BF14491148FFF794
:10138000D3FA0128F9D1002211460E48FFF77CFB61
:1013900000BF0E49891E0B48FFF7C6FA0128F8D195
:1013A00021460848FFF779FB00BF0849891C05481A
:1013B000FFF7BAFA0128F8D101210248FFF7E1FA54
:1013C00010BD00000054004001000300820007002F
:1013D00070B505460E4601211C48FFF7C6FA00BF4E
:1013E0001B491A48FFF7A0FA0128F9D100227821F9
:1013F0001648FFF749FB00BF16491448FFF794FA57
:101400000128F9D1002240211048FFF73DFB00BF21
:101410001049891E0D48FFF787FA0128F8D10024EA
:101420000CE0295D0948FFF738FB00BF0949891C1A
:101430000648FFF779FA0128F8D1641CB442F0D3CA
:1014400001210248FFF79DFA70BD000000540040E2
:10145000010003008200070029B1064AD269024355
:10146000044BDA6104E0034AD2698243014BDA613A
:10147000704700000010024029B1064A92690243F9
:10148000044B9A6104E0034A92698243014B9A61DA
:10149000704700000010024030B5002100220024F7
:1014A00000232D4D6D6805F00C0121B1042905D0F4
:1014B000082923D105E0294D056022E0274D05606C
:1014C0001FE0254D6D6805F47012234D6D6805F41D
:1014D0008034022505EB92421CB9214D554305602D
:1014E0000BE01D4D6D6805F400351DB11C4D5543D5
:1014F000056002E0194D5543056002E0174D056097
:1015000000BF00BF144D6D6805F0F0010909154DCD
:101510006B5C0568DD4045600F4D6D6805F4E0616A
:10152000090A104D6B5C4568DD4085600A4D6D68A9
:1015300005F46051C90A0B4D6B5C4568DD40C56020
:10154000054D6D6805F44041890B074D6B5CC5681E
:10155000B5FBF3F5056130BD0010024000127A00C2
:1015600000093D0014000020240000207047000006
:1015700010B586B0044601218803FFF77DFF0121E5
:101580000420FFF779FF4FF40070ADF81400182025
:101590008DF8170003208DF8160005A91F48FFF7E6
:1015A000ABF84FF48060ADF8140048208DF81700B8
:1015B00003208DF8160005A91848FFF79DF801943F
:1015C0000020ADF810000C20ADF80E000020ADF8A2
:1015D0000C00ADF80A00ADF8080001A9104800F0B1
:1015E0006BFB012240F225510D4800F040FB4FF407
:1015F000A060FFF74BFB25208DF8000001208DF83F
:1016000003008DF801008DF802006846FFF706FB25
:101610000121034800F0F5FA06B010BD00080140B2
:101620000038014010B586B0044601214804FFF798
:1016300013FF18208DF817000420ADF814000320C4
:101640008DF8160005A91448FFF756F848208DF8C4
:1016500017000820ADF8140003208DF8160005A926
:101660000D48FFF749F801940020ADF810000C2058
:10167000ADF80E000020ADF80C00ADF80A00ADF892
:10168000080001A9054800F017FB0121034800F0FC
:10169000B8FA06B010BD0000000801400044004048
:1016A00000B589B001210220FFF7D6FE01210420F8
:1016B000FFF7E2FE18208DF823004020ADF820004F
:1016C00003208DF8220008A91948FFF715F81948DA
:1016D00000F087F90020ADF81A00ADF8160044F6C6
:1016E0001F60ADF818004720ADF8140000208DF8F9
:1016F0001C0005A90F4800F0D3F901A800F0C4F9B7
:101700006020ADF804000020ADF80C000120ADF819
:10171000060040F2E240ADF80A0001A9054800F0D9
:1017200067F90121034800F036F909B000BD000057
:10173000000801400004004010B50446B4F5487F9D
:1017400002DA4FF4487006E0B4F5C86F02DD4FF4DA
:10175000C86000E0204604462146024800F09EF999
:10176000204610BD0004004010B500F001F810BD87
:101770000CB50020019000903348006840F48030A0
:101780003149086000BF3048006800F40030009024
:101790000198401C0190009818B90198B0F5A06F0D
:1017A000F1D12948006800F4003010B10120009008
:1017B00001E0002000900098012843D123480068F0
:1017C00040F01000214908600846006820F003003E
:1017D00008600846006840F0020008601A48406847
:1017E000194948600846406848600846406840F427
:1017F000806048600846406820F47C1048600846D5
:10180000406840F4E81048600846006840F0807086
:10181000086000BF0C48006800F000700028F9D094
:101820000948406820F003000749486008464068BE
:1018300040F00200486000BF0348406800F00C0020
:101840000828F9D10CBD0000001002400020024021
:1018500030B502461148006850434FF47A71B0FB2E
:10186000F1F0401E4FF0E021486148170F21002899
:1018700007DA0B071D0E0A4B00F00F04241F1D553D
:1018800003E00B071C0E074B1C5400BF00204FF059
:10189000E02188610720086130BD000000000020C1
:1018A00018ED00E000E400E010B500F0EDFF10BD21
:1018B00010B51348006840F001001149086008465F
:1018C0004068104908400E494860084600680E49C3
:1018D00008400B4908600846006820F48020086032
:1018E0000846406820F4FE0048604FF41F008860FE
:1018F000FFF73AFF4FF000600449086010BD000098
:10190000001002400000FFF8FFFFF6FE08ED00E0C7
:1019100010B50121044800F04AF818B1012102482D
:1019200000F036F810BD0000000800407FB5054605
:101930000C4601210420FFF78FFD681E80B2ADF830
:101940000800601E80B2ADF804000020ADF80A0067
:10195000ADF8060001A90D4800F0A2F801221146D9
:101960000A4800F035F81E208DF8000000208DF8A0
:10197000010001208DF802008DF803006846FFF792
:101980004DF90121014800F006F87FBD0008004034
:10199000CA430282704721B1028842F001020280EC
:1019A00004E002884FF6FE731A400280704730B59B
:1019B0000246002000230024158A05EA01039589C8
:1019C00005EA010413B10CB1012000E0002030BD94
:1019D0001AB183890B43838102E083898B4383811E
:1019E000704701894FF6F87211400181704700007D
:1019F00070B5002400220023058C4FF6FE7635409A
:101A00000584028C8388048B4FF68F752C40B51E9D
:101A10002C400D882C43751E2A400D892A434D8881
:101A20002A43144DA8420BD0134DA84208D0134DA1
:101A3000A84205D0124DA84202D0124DA84213D19F
:101A40004FF6F7752A404D892A434FF6FB752A4019
:101A50008D882A434FF6FF652B404FF6FF552B40EC
:101A60008D892B43CD892B4383800483CD88858644
:101A7000028470BD002C0140003401400040014050
:101A800000440140004801400021018041808180E4
:101A9000C180018141818181C18170478186704708
:101AA000002202881D4B98420ED01D4B98420BD04D
:101AB000B0F1804F08D01B4B984205D01A4B98428A
:101AC00002D01A4B984204D14FF68F731A404B88BC
:101AD0001A43174B984207D0164B984204D04FF642
:101AE000FF431A40CB881A4302808B8883850B887A
:101AF00003850A4B98420BD0094B984208D00E4BF5
:101B0000984205D00D4B984202D00D4B984201D11E
:101B10000B7A03860123838270470000002C01406A
:101B2000003401400004004000080040000C004068
:101B300000100040001400400040014000440140FB
:101B40000048014010B540F22551214800F065F8E9
:101B500001283CD11E4800F01BF9C4B21D48007892
:101B600058B9402C2DD11C48007850BB0120194990
:101B7000087000201949087023E0164800780128F1
:101B80000FD10D2C03D102201249087019E014481E
:101B900012490978445411480078401C0F490870D4
:101BA0000FE00C48007802280BD10A2C09D1002044
:101BB000084908700A49094A1278885401200649E0
:101BC000087040F22551024800F00CF800BF10BD2B
:101BD0000038014051000020500000205200002039
:101BE0009804002010B50022002340F66A14A14298
:101BF00000D100BF0A1201249440A3B2DC43048048
:101C000010BD21B1828942F40052828104E08289B0
:101C10004DF6FF731A408281704770B5024600246A
:101C200000230025002040F66A16B14200D100BF13
:101C3000C1F3421501F01F03012606FA03F3012D3B
:101C400002D19689334006E0022D02D1168A334034
:101C500001E0968A33400C12012606FA04F4168835
:101C6000344013B10CB1012000E0002070BDF0B58C
:101C70000346002400260025002040F66A17B942DA
:101C800000D100BF1846C1F3421401F01F0601271E
:101C900007FA06F5012C01D10C3004E0022C01D129
:101CA000103000E014301AB107682F43076002E0DB
:101CB0000768AF430760F0BD2DE9F04786B00546E1
:101CC0000E460024A24600BFA1460027B08900B1FD
:101CD00000BF2F462C8A4CF6FF700440F088044366
:101CE0002C82AC894EF6F3100440B0883189084349
:101CF000718908430443AC81AC8A4FF6FF4004402D
:101D0000B0890443AC8201A8FFF7C6FB1F48874295
:101D100002D1DDF810A001E0DDF80CA0A88900F4E4
:101D2000004040B10AEBCA0000EB0A1031684900DC
:101D3000B0FBF1F807E00AEBCA0000EB0A103168CB
:101D40008900B0FBF1F86420B8FBF0F00401200931
:101D5000642101FB1089A88900F4004040B13220C1
:101D600000EBC900B0FBF1F000F00700044308E00D
:101D7000322000EB09106421B0FBF1F000F00F00FD
:101D800004432C8106B0BDE8F08700000038014014
:101D900001468888C0F30800704700BFFEE702E0F4
:101DA00008C8121F08C1002AFAD1704770470020E6
:101DB00001E001C1121F002AFBD170471CB54FF48E
:101DC0000070104901230022CDE900100E490F4890
:101DD00000F028FC4FF400700D4900231A46CDE9AD
:101DE00000100C490C4800F01DFC4FF400700B492A
:101DF00001230022CDE9001009490A4800F012FC35
:101E00001CBD0000240A002019210008340900200C
:101E1000240C0020651F000884090020240E0020E7
:101E2000D9210008D40900202DE9FF5F234800686C
:101E300038B9012021490860002021490860BDE827
:101E4000FF9F1F480068642809D11E4800681E498A
:101E5000086000201B49086000F0AAFC2CE018482C
:101E600000686421B0FBF1F201FB120020BB1648B0
:101E70000068FEF727FB04460D4612480068FEF78F
:101E800021FB80460022114BFEF73BFA0646224614
:101E90002B46FEF7A8FA00220D4BCDE90001FEF714
:101EA00030FA82460022094BFEF728FACDE90201FA
:101EB000FEF715FB0749086000BFC0E74C00002093
:101EC000440000203C000020400000200000594059
:101ED0000000F03F4800002000BF024800680028D2
:101EE000FBD070474C00002010B54FF4A060FEF707
:101EF000CDFEFEF7FBFDFEF7E9FBFEF7D1FD00206E
:101F0000FEF712FE0A214FF4E150FEF727FEFEF71E
:101F10006DFFFFF7D9F84FF4E130FFF729FB4FF4DD
:101F20001650FFF77FFBFFF7BBFB64214FF4E15036
:101F3000FFF7FCFC10BD00000020054908600549C2
:101F40000860054908600549086005490860704750
:101F5000480000203C0000204000002044000020F9
:101F60004C00002008B505224C494D4800F055FAB8
:101F700000BF0020FEF75CFC4A4908700846007864
:101F8000FF2808D00846007800900022694644489F
:101F900000F054FA00BF43480078B0B942480068E6
:101FA00098B90120404908604FF49660FFF7C4FBE0
:101FB0003E49086040F62820FEF71EFE3C490860B6
:101FC000084600683B49086063E03948006800281B
:101FD0005FDD3448007801280FD135480068C830EB
:101FE00033490860098888B2FEF706FE3049086068
:101FF000084600682F4908604BE02A48007802280C
:102000000FD12B480068C83829490860098888B270
:10201000FEF7F2FD26490860084600682549086079
:1020200037E02048007803280BD12048006864304E
:102030001E490860098888B2FFF77EFB1B490860CB
:1020400027E01848007804280BD118480068643845
:1020500016490860098888B2FFF76EFB13490860CB
:1020600017E011480068012813D10E48007880B9A4
:1020700000200D490860FEF7BFFD0D4908604FF4D0
:102080009660FFF759FB094908600948006809494B
:102090000860052000F090FA6BE70000200900209E
:1020A000FC080020680000206C0000206000002078
:1020B0006400002070000020406000607047000055
:1020C0001CB5FFF711FF00F057FB0D4800F089F930
:1020D000FFF732FF80200B491F230022CDE90010BB
:1020E00009490A4800F09EFA08480949086000F0CA
:1020F00085FA0849086000F031FB00201CBD000093
:10210000F401002074100020412A0008241000204F
:10211000300000202C00002008B500BF082001235B
:1021200000902048002102683820FEF7A7FF082011
:10213000032300901C48027800217020FEF79EFFC8
:102140000820042300901948102102684020FEF75F
:1021500095FF0820042300901548202102684020A4
:10216000FEF78CFF082002230090124802782021FD
:102170007020FEF7D5FE0F480078012806D108230D
:102180000DA230210020FEF7EFFF05E008230EA28C
:1021900030210020FEF7E8FFFFF7C8F80A2000F022
:1021A0000BFABBE76C0000206800002060000020F4
:1021B00064000020690000204445544543544544D0
:1021C0005F50454F504C45004E4F5F50454F504C6F
:1021D000455F48455245200000BF1148007801285E
:1021E0001AD110A11148FDF7D7FF50B901201049AD
:1021F00008701049098888B2FEF7FEFC0E49086095
:1022000007E002200A4908700020FEF7F5FC0A49A1
:1022100008600020024908700A2000F0CDF9DCE7D0
:102220005000002050656F706C650000980400201D
:102230006900002070000020640000207047012326
:102240008B4002689A4302607047000000B5014667
:10225000087818B10878134A105C00BD088800F4AB
:102260007F4030B10888C0F307200E4A105C083068
:10227000F3E7086800F47F0030B10868C0F3074056
:10228000084A105C1030E8E7086800F07F4028B189
:102290000868000E034A105C1830DEE700F007F80B
:1022A000DBE70000742A000800210160704720204D
:1022B000704701238B4002681A430260704770B573
:1022C00004460D4600202060201D00F08AF870BDF5
:1022D0002DE9F04104460D46164600F083F9074605
:1022E000E16B081D04F10C0100F080F80020E063B0
:1022F00025646664206A20F47F002062384600F07E
:1023000077F9BDE8F0812DE9F04705460C46164601
:102310001F46DDF8208000F065F98146206A3843C9
:102320002062E563266401206064204600F0F8F92D
:1023300004F10C01281D00F041F8B8F1000F03D0A2
:102340004146204600F028F9484600F051F9BDE822
:10235000F08770B5044600F045F90646201D00F0F0
:1023600037F80546304600F043F9284670BD2DE9A0
:10237000F04705460E46174600F034F98146281D01
:1023800000F03EF88046B8F1000F11D0A8F10C041F
:102390000020E06326646764206A20F47F002062E6
:1023A000E06910B1204600F0ADF9204600F04EFA89
:1023B000484600F01DF92046BDE8F08748600268F5
:1023C0000A600268516001608268521C8260704736
:1023D000014688687047014600208A6802B1486853
:1023E000704740600060002181607047D1E9003291
:1023F0005A60D1E900231A608268521E82607047D9
:10240000014600208A683AB1486842681160426813
:102410004A608A68521E8A60704770B504460E464C
:1024200015464FF400312046FFF749FF2662002091
:1024300020616561A061E06170BD00002DE9F0419F
:1024400004460D46174600F0CDF880462046FFF7BB
:1024500080FF70B1002211462046FFF788FF064634
:102460001B49706A0968496A88422CD200F0CCF98D
:1024700029E0D4E90401884205D3404600F0B8F8C9
:102480000420BDE8F08107F0010068B1A06918B927
:102490006069401EA06102E0A069401EA061A169C0
:1024A000206A40F821500BE0E169481CE061206A95
:1024B00040F821506169E069884201D30020E06161
:1024C0002069401C2061404600F092F80020D8E7C7
:1024D0002800002070B504460E4615464FF48031A2
:1024E0002046FFF7ECFE65610DB9266105E0AE42BE
:1024F00001D9284600E03046206170BD70B5044621
:1025000000F070F806462046FFF723FF70B1002266
:1025100011462046FFF72BFF05460C49686A0968FB
:10252000496A884201D200F06FF90AE02069401C34
:102530002061606928B1D4E90401884201D9606949
:102540002061304600F054F870BD000028000020E3
:10255000F8B504460D4600F045F80646206938B146
:102560002069401E2061304600F042F80020F8BD8E
:102570004FF4803300220748009501682046FFF79A
:10258000C2FE304600F034F800F03EF90148006821
:10259000406CECE72800002070B504460D46E5616C
:1025A000211D0448FFF70AFF206A40F00200206264
:1025B00070BD0000F401002070B5044600F012F870
:1025C0000546214606480068FFF7E6FF0448006814
:1025D00000F0A6F800F018F9284600F009F870BDE0
:1025E0002800002000BFEFF31081084672B6704744
:1025F00000BF80F3108800BF7047000070B5074827
:10260000FFF724FE044604EB4401054A02EB810077
:10261000FFF7E1FE0546A5F10C0070BD3800002073
:10262000740000202DE9F0470446884691469A46FA
:10263000DDE908676661A76139463046FDF7A1FD0F
:10264000B80806EB80054FF08071281F0546016031
:10265000281F0546C0F800801421281F0546016088
:102660001221281F054601600321281F054601602D
:102670000221281F054601600121281F054601602F
:10268000281F0546C0F800901121281F054601604B
:102690001021281F054601600921281F05460160F9
:1026A0000821281F054601600721281F05460160F3
:1026B0000621281F054601600521281F05460160E7
:1026C0000421281F0546016025600020E061C4F850
:1026D00024A00A20E062206A20620020A062206319
:1026E000606384F83800E0632064606404F10C00E7
:1026F000FFF7E2FC201DFFF7DFFC204600F0A6F804
:10270000BDE8F08710B50446211D0448FFF76EFEB2
:10271000206A20F00200206210BD0000F4010020B9
:1027200010B50446616A01EB41010A4A02EB8100DF
:1027300004F10C01FFF75AFE616A01EB4101054A01
:1027400002EB8100FFF744FE18B90348616AFFF706
:1027500076FD10BD740000203800002010B5002068
:10276000FDF7D1FCFF2003490870C80601491E3956
:10277000086010BD22ED00E010B5002400200949DA
:1027800008700948FFF790FD00BF07E004EB440123
:10279000064A02EB8100FFF724FE641C202CF5DBC7
:1027A00010BD00003400002038000020740000201C
:1027B00010B5FFF717FF044608480078002808DD29
:1027C00006480078401EC0B20449087008B900F0FD
:1027D0001BF82046FFF70CFF10BD0000340000205E
:1027E00010B5FFF7FFFE044606480078FF2804DA1C
:1027F00004480078401C034908702046FFF7F8FEA3
:1028000010BD00003400002070B5FFF7EBFE054658
:102810000B480078002803DD2846FFF7E9FE70BD6D
:10282000FFF7ECFE044607480068844203D00648E0
:10283000046000F021F82846FFF7DAFE00BFEEE75B
:1028400034000020280000202C00002010B5044691
:10285000616A01EB4101064A02EB810004F10C01BF
:10286000FFF7ACFD0348616AFFF723FD10BD0000D0
:1028700074000020380000204FF0805001490860AB
:102880007047000004ED00E070B5FFF7ABFE0646B0
:102890002B48456812E02C1FE069401EE06160B9DA
:1028A000E06B20B1012200212046FFF711FD2046F8
:1028B000FFF728FF2046FFF7C9FF6D6820488542D3
:1028C000E9D120480068C06A401E1E490968C862F4
:1028D00030BB1C490968496A01EB41011A4A02EB05
:1028E0008100FFF775FD01281AD916490968496A60
:1028F00001EB4101144A02EB8100FFF781FD114910
:102900000968496A01EB41010F4A02EB81000D4958
:1029100009680C31FFF752FD0A200A490968C862AC
:102920000A480068401C09490860FFF77DFA3046F4
:10293000FFF75EFE00F05CF8FFF766FF70BD000079
:10294000F401002028000020740000204400002032
:1029500070B505466E681CE03446206918B12069E0
:10296000401E2061A0B9022084F82000D4E905109F
:102970008847012084F82000E06810B1E0682061F9
:1029800006E021462846FFF731FD032084F82000A9
:102990007668AE42E0D170BD1CB50D48FFF721FD51
:1029A0000C48FFF71EFD012211460B48FFF792FD70
:1029B000002211460948FFF78DFD802008490123B8
:1029C000084ACDE9001008490848FFF72BFE1CBD56
:1029D000500400205C0400206804002080040020D3
:1029E0005002002078563412152A000800020020F8
:1029F00010B5FFF7F7FD04460448FFF7A9FF20468E
:102A0000FFF7F6FD0248FFF779FD10BD50040020E6
:102A10008004002000BF00210648FFF799FD002137
:102A20000548FFF795FD0548FFF792FF0248FFF7BD
:102A300065FDF0E780040020680400205C040020AD
:102A4000FFF7CEFE0A20FEF703FFFFF7A5FFFFF713
:102A5000B5F9FFF741FA00BFFFF7C4FD044604488B
:102A60000068401C024908602046FFF7C1FDF3E7FB
:102A70003C000020FF0001000200010003000100F3
:102A80000200010004000100020001000300010037
:102A90000200010005000100020001000300010026
:102AA0000200010004000100020001000300010017
:102AB0000200010006000100020001000300010005
:102AC00002000100040001000200010003000100F7
:102AD00002000100050001000200010003000100E6
:102AE00002000100040001000200010003000100D7
:102AF00002000100070001000200010003000100C4
:102B000002000100040001000200010003000100B6
:102B100002000100050001000200010003000100A5
:102B20000200010004000100020001000300010096
:102B30000200010006000100020001000300010084
:102B40000200010004000100020001000300010076
:102B50000200010005000100020001000300010065
:102B60000200010004000100020001000300010056
:102B70000200010000000000000000000000000052
:102B800000000000000000F800000000000000331A
:102B90003000000000160E00160E000000000000BD
:102BA0000000000040C07840C0784000043F0404AA
:102BB0003F040400007088FC08300000001820FF6B
:102BC000211E0000F008F000E018000000211C03A6
:102BD0001E211E0000F00888700000001E21232422
:102BE00019272110000000160E0000000000000050
:102BF00000000000000000E01804020000000007D0
:102C00001820400000020418E000000000402018D6
:102C100007000000404080F0804040000202010FA9
:102C200001020200000000F0000000000101011F8D
:102C300001010100000000000000000000B0700071
:102C40000000000000000000000000000001010181
:102C50000101010100000000000000000030300010
:102C600000000000000000008060180400601806EA
:102C70000100000000E010080810E000000F102024
:102C800020100F00001010F8000000000020203F6E
:102C900020200000007008080888700000302824F8
:102CA0002221300000300888884830000018202099
:102CB00020110E000000C02010F8000000070424BE
:102CC000243F240000F80888880808000019212003
:102CD00020110E0000E0108888180000000F11205D
:102CE00020110E0000380808C83808000000003F16
:102CF000000000000070880808887000001C222175
:102D000021221C0000E010080810E0000000312221
:102D100022110F00000000C0C000000000000030C1
:102D200030000000000000C0C0000000000080B0C3
:102D30007000000000008040201008000001020424
:102D4000081020004040404040404000040404047B
:102D50000404040000081020408000000020100837
:102D600004020100007048080808F000000000306C
:102D700036010000C030C828E810E00007182724FA
:102D800023140B000000C038E0000000203C2302A8
:102D90000227382008F8888888700000203F20200B
:102DA00020110E00C030080808083800071820203D
:102DB0002010080008F808080810E000203F202034
:102DC00020100F0008F88888E8081000203F202015
:102DD0002320180008F88888E8081000203F200009
:102DE00003000000C0300808083800000718202041
:102DF000221E020008F808000008F808203F210100
:102E000001213F20000808F8080800000020203FAA
:102E10002020000000000808F8080800C08080801A
:102E20007F00000008F888C028180800203F200113
:102E30002638200008F8080000000000203F20206D
:102E40002020300008F8F800F8F80800203F003F84
:102E5000003F200008F830C00008F808203F20009C
:102E600007183F00E01008080810E0000F102020AD
:102E700020100F0008F808080808F000203F210182
:102E800001010000E01008080810E0000F182424D9
:102E900038504F0008F8888888887000203F20004C
:102EA000030C302000708808080838000038202102
:102EB00021221C00180808F8080818000000203F0C
:102EC0002000000008F808000008F808001F202073
:102ED00020201F000878880000C838080000073844
:102EE0000E010000F80800F80008F800033C070095
:102EF000073C0300081868808068180820302C03FD
:102F0000032C30200838C800C83808000000203FD3
:102F10002000000010080808C838080020382621C2
:102F200020201800000000FE020202000000007FC6
:102F300040404000000C30C00000000000000001D4
:102F40000638C00000020202FE00000000404040BF
:102F50007F0000000020100804081020000000007E
:102F60000000000000000000000000008080808061
:102F70008080808000020408000000000000000043
:102F800000000000000080808080000000192422E2
:102F900022223F2008F8008080000000003F11201E
:102FA00020110E000000008080800000000E112023
:102FB00020201100000000808088F800000E112001
:102FC00020103F200000808080800000001F22220F
:102FD00022221300008080F0888888180020203F7B
:102FE000202000000000808080808000006B94948E
:102FF0009493600008F8008080800000203F21004A
:1030000000203F2000809898000000000020203F12
:1030100020200000000000809898000000C0808000
:10302000807F000008F8000080808000203F24029C
:103030002D302000000808F8000000000020203F8C
:10304000202000008080808080808000203F200041
:103050003F20003F008080008080000000203F2152
:1030600000203F200000808080800000001F202082
:1030700020201F00808000808000000080FFA120B1
:1030800020110E000000008080808000000E1120C2
:1030900020A0FF80808080008080800020203F2151
:1030A0002000010000008080808080000033242404
:1030B00024241900008080E0808000000000001FB0
:1030C000202000008080000000808000001F202061
:1030D00020103F20808080000080808000010E3022
:1030E0000806010080800080008080800F300C0383
:1030F0000C300F0000808000808080000020312E86
:103100000E312000808080000080808080818E7061
:103110001806010000808080808080000021302C13
:103120002221300000000000807C0202000000002C
:10313000003F404000000000FF00000000000000D1
:10314000FF0000000002027C800000000040403FC1
:10315000000000000080404080000080000000006F
:10316000000101000000000000000000002F00002E
:1031700000000700070000147F147F1400242A7F3A
:103180002A120023130864620036495522500000B9
:103190000007000000001C224100000041221C002A
:1031A0000014083E08140008083E0808000000A0AB
:1031B00060000008080808080000606000000020A7
:1031C00010080402003E5149453E0000427F400085
:1031D000004261514946002141454B31001814120B
:1031E0007F10002745454539003C4A4949300001D8
:1031F0007109050300364949493600064949291E27
:103200000000363600000000563600000008142288
:103210004100001414141414000041221408000288
:1032200001510906003E4955592E007C1211127CAD
:10323000007F49494936003E41414122007F4141DA
:10324000221C007F49494941007F09090901003ECC
:103250004149497A007F0808087F0000417F41000A
:10326000002040413F01007F08142241007F404080
:103270004040007F020C027F007F0408107F003E68
:103280004141413E007F09090906003E4151215E4E
:10329000007F091929460046494949310001017F4B
:1032A0000101003F4040403F001F2040201F003FE1
:1032B0004038403F00631408146300070870080793
:1032C00000615149454300007F414100000204086C
:1032D0001020000041417F00000402010204004070
:1032E0004040404000000102040000205454547843
:1032F000007F484444380038444444200038444463
:10330000487F00385454541800087E090102001800
:10331000A4A4A47C007F080404780000447D40003D
:10332000004080847D00007F102844000000417F21
:103330004000007C04180478007C080404780038FD
:103340004444443800FC242424180018242418FC85
:10335000007C0804040800485454542000043F44EE
:103360004020003C4040207C001C2040201C003CB1
:103370004030403C004428102844001CA0A0A07C01
:10338000004464544C440000087F41000000007F6A
:1033900000000000417F0800000804081008EFBC8E
:1033A0008C00000000000000000000000000000091
:1033B000000000000058380000000000000000007D
:1033C000000000E380820000000000000000000018
:1033D0000000000000000000000018242418000075
:1033E0000000000000000000E4BDA00000008060BC
:1033F000F8074020180F08C8080828180001000026
:10340000FF00100C0340807F0001061800E5A5BDF9
:1034100000001010F01F10F000808282E2928A8675
:103420008000402215081661000040807F000000E7
:103430000000E4B8960000202020FE2020FF20207D
:1034400020FF20202020000000007F40404744440F
:1034500044474040400000E7958C0000000000FE1B
:10346000929292FE929292FE00000000080804845C
:10347000621E010001FE02040408080000000000B2
:1034800000FF0101013109090909897101010101E7
:10349000FFFF808080808080968180808080808017
:1034A000FFFF01818181FD8991A1C1FD81818101A0
:1034B000FFFF808080809F888482819F80808080C1
:1034C000FF000000E4340008000000207400000049
:1034D0009E1D0008583500087400002004160000E6
:1034E000AE1D000800A24A04000000000000000019
:1034F000010203040607080900000000010203049A
:10350000010203040607080902040608000000007F
:1035100000000000000000000000000000000000AB
:10352000000000000000000000000000000000009B
:10353000000000000000000000000000010000008A
:1035400000000000B004000000000000FFFF0000C9
:08355000000000000000000073
:04000005080000ED02
:00000001FF
