:020000040800F2
:100000005812002051010008CD0A000851090008CB
:10001000D9090008F106000897190008000000003F
:10002000000000000000000000000000FD100008BB
:10003000F506000800000000210100085114000826
:100040006B0100086B0100086B0100086B010008E0
:100050006B0100086B0100086B0100086B010008D0
:100060006B0100086B0100086B0100086B010008C0
:100070006B0100086B0100086B0100086B010008B0
:100080006B0100086B0100086B0100086B010008A0
:100090006B0100086B0100086B0100086B01000890
:1000A0006B0100086B0100086B0100086B01000880
:1000B0006B0100086B010008B91400086B0100080F
:1000C0006B0100086B0100086B0100086B01000860
:1000D0006B0100081D1700086B0100086B01000888
:1000E0006B0100086B0100086B010008DFF80CD001
:1000F00000F0DCFA00480047411E000858120020BA
:10010000EFF30980704780F309887047EFF30880A8
:10011000704780F30888704740BA7047C0BA70478C
:10012000EFF3098020B120E9F00F07490968086062
:10013000054806490A6802601068B0E8F00F80F3CD
:1001400009884EF0040E70472C000020300000207B
:100150000648804706480047FEE7FEE7FEE7FEE761
:10016000FEE7FEE7FEE7FEE7FEE7FEE759140008BC
:10017000ED000008D2B201E000F8012B491EFBD2CD
:1001800070470022F6E710B513460A4604461946A2
:10019000FFF7F0FF204610BD10B5002200E0521C12
:1001A000835C8C5CA34201D1002BF8D1D8B2E1B2C0
:1001B000401A10BD2DE9FE4F804681EA0300C00FB2
:1001C0000C46009021F0004123F00045B8EB0200FE
:1001D000A94105D24046214690461C460B460246A0
:1001E00023F00040104347D0270DC7F30A00C3F3A4
:1001F0000A510290401A019040286BDAC3F31300B1
:1002000040F4801B0098924620B10023D2EB030AF1
:1002100063EB0B0B01985946C0F14002504600F0C9
:1002200090F906460D4650465946019A00F098F955
:1002300010EB08006141002487EA115284EAE77359
:100240001A4340D0009A62B3019A012A4FEA07523A
:1002500015DC001B61EB02014FF0004202EA07527D
:10026000CDE90042001C41F5801132462B4600F0DA
:10027000CFF903B0BDE8F08F40462146F9E7001BF7
:1002800061EB0201001C41F5801300185B4120184E
:10029000A2F5001747EB030140EAD570B6196D418E
:1002A00011E06D084FEA360645EAC0754FEA07527D
:1002B000001B61EB0201001C41F5801149084FEA67
:1002C00030000019514132462B4603B0BDE8F04FD3
:1002D00000F08FB90098012240000023D0EB020209
:1002E00063EBE073009821464FEAE074B8EB00003E
:1002F00061EB0401E9E783F000435BE781F0004133
:1003000058E72DE9FE4F81EA030404F0004421F090
:10031000004100944FF0000B23F0004350EA010429
:100320005ED052EA03045BD0C3F30A54C1F30A550A
:100330002C44A4F2F3340194A0FB0254C1F3130142
:1003400041F48011C3F3130343F4801301FB02440F
:1003500000FB034E840A970A44EA815447EA835714
:10036000A4FB076802958D0A05FB07854FEA932CCD
:1003700004FB0C542705029D4FEA065847EA16373E
:10038000B5EB08056EEB070C870E920E47EA811756
:1003900042EA8312A7FB0201B6EB0B0164EB0004F7
:1003A0002B0D43EA0C335E1844EB1C50DA465146E1
:1003B000E7FB0201C5F313044FEA0B3343EA14537E
:1003C0004FEA0432019C43EA0603A4F10C040294B0
:1003D000009CCDE900B400F01BF903B0BDE8F08F3C
:1003E00000200146F9E72DE9F04D81EA030404F00D
:1003F000004B21F0004514464FF0000A23F0004165
:1004000050EA050220D054EA01021DD0C5F30A5774
:100410000246C5F31303C1F31300C1F30A5640F4B7
:10042000801543F48013A7EB0608101BD64608F28C
:10043000FD3873EB050002D308F1010801E09218C2
:100440005B41B8F1000F03DA00200146BDE8F08DF2
:1004500000204FF48011064684460EE0171B73EB14
:10046000050705D3121B63EB050306434CEA010C99
:1004700049084FEA300092185B4150EA0107EDD17C
:1004800052EA030012D082EA040083EA050108431D
:1004900005D0101BAB4106D20122002306E000224A
:1004A0004FF0004302E06FF0010253101AEB060018
:1004B0004CEB085110EB0A0041EB0B01BDE8F04D8D
:1004C00000F097B80EB540F2334102910021CDE91A
:1004D00000110A460B4600F09BF803B000BD01F086
:1004E000004330B421F0004150EA010206D00A0D69
:1004F000A2F56072C1F31301002A02DC30BC0020B7
:100500007047440F44EAC104C100E01830BC00EB5E
:10051000C25000F037B830B50B460146002020220B
:10052000012409E021FA02F59D4205D303FA02F500
:10053000491B04FA02F52844151EA2F10102F1DC60
:1005400030BD202A04DB203A00FA02F10020704777
:100550009140C2F1200320FA03F319439040704701
:10056000202A06DBCB17203A41FA02F043EAE07377
:1005700006E041FA02F3D040C2F120029140084364
:10058000194670470029A8BF7047401C490008BFA2
:1005900020F00100704710B4B0FA80FC00FA0CF0B3
:1005A00050EA010404BF10BC704749B1CCF12004EB
:1005B00021FA04F411FA0CF118BF01212143084378
:1005C000A3EB0C01CB1D4FEA00614FEA102042BFA4
:1005D000002010BC704700EBC35010440029A4BF9A
:1005E00010BC7047401C490008BF20F0010010BC3F
:1005F000704710B5141E73F1000408DA401C41F175
:10060000000192185B411A4301D120F0010010BD96
:100610002DE9F04D92469B4611B1B1FA81F202E00C
:10062000B0FA80F220329046FFF78BFF04460F4667
:1006300040EA0A0041EA0B0153465A46084313D0E8
:10064000114653EA010019D0C8F14002504600F0AB
:100650003FF805460E46504659464246FFF771FFA1
:10066000084305D0012004E020463946BDE8F08D5E
:100670000020054346EAE0762C4337430A98630599
:10068000E40AA0EB08000022FD0A44EA47540A30BD
:1006900002D500200146E9E7010510196941DDE9AD
:1006A000084500196941BDE8F04DA2E7064C074D29
:1006B00006E0E06840F0010394E807009847103432
:1006C000AC42F6D3FFF716FDE42E0008042F000815
:1006D000202A04DB203A21FA02F00021704721FA97
:1006E00002F3D040C2F120029140084319467047FE
:1006F00000BFFEE77047000008B50121042000F0AC
:1007000083FC0820ADF8000004208DF803000320CE
:100710008DF802006946024800F004F808BD0000A8
:10072000000801402DE9F041024600250026002086
:1007300000230024002791F803C00CF00F0591F866
:1007400003C00CF0100CBCF1000F03D091F802C0F4
:100750004CEA050591F800C0BCF1000F31D01468D7
:1007600000202BE04FF0010C0CFA00F3B1F800C0B0
:100770000CEA03069E4220D183004FF00F0C0CFAC6
:1007800003F7BC4305FA03FC4CEA040491F803C0E8
:10079000BCF1280F06D14FF0010C0CFA00FCC2F896
:1007A00014C00AE091F803C0BCF1480F05D14FF026
:1007B000010C0CFA00FCC2F810C0401C0828D1D370
:1007C0001460B1F800C0BCF1FF0F34DD54680020A4
:1007D0002EE000F1080C4FF0010808FA0CF3B1F814
:1007E00000C00CEA03069E4221D183004FF00F0C9B
:1007F0000CFA03F7BC4305FA03FC4CEA040491F835
:1008000003C0BCF1280F05D100F1080C08FA0CF860
:10081000C2F8148091F803C0BCF1480F07D100F171
:10082000080C4FF0010808FA0CF8C2F81080401CC0
:100830000828CED35460BDE8F081024600209368BA
:100840000B400BB1012000E0002070474161704770
:100850000AB1016100E041617047000010B5044633
:1008600014B101203749087036480078002845D077
:100870004FF400613448FFF7E0FFA0B11021334886
:10088000FFF7DBFF78B14FF480512F48FFF7D5FF1A
:1008900048B140212D48FFF7D0FF20B180212B48DF
:1008A000FFF7CBFF50BB022001F046FD0020254999
:1008B00008704FF400612448FFF7BFFF08B900201B
:1008C00010BD10212148FFF7B8FF08B90120F7E754
:1008D0004FF480511C48FFF7B0FF08B90220EFE742
:1008E00040211A48FFF7A9FF08B90320E8E7802153
:1008F0001648FFF7A2FF10BB0420E1E74FF40061A8
:100900001148FFF79AFF012819D110210F48FFF76E
:1009100094FF012813D101030B48FFF78EFF012834
:100920000DD140210948FFF788FF012807D1802118
:100930000648FFF782FF012801D102490870FF2015
:10094000BEE700005800002000080140000C0140F4
:1009500000BFFEE708B501210C2000F055FBF02098
:10096000ADF8000048208DF8030003208DF8020048
:1009700069460948FFF7D6FE4FF4C050ADF80000B5
:1009800048208DF8030003208DF8020069460348D3
:10099000FFF7C8FE08BD0000000C01400008014040
:1009A00008B50121102000F02FFB4FF40050ADF8E6
:1009B000000010208DF8030003208DF80200694626
:1009C0000448FFF7AFFE4FF400510248FFF73EFF27
:1009D00008BD00000010014000BFFEE738B5044626
:1009E0004FF40040ADF8000010208DF80300032004
:1009F0008DF8020069460548FFF794FE22464FF441
:100A000000410248FFF724FF38BD000000100140FC
:100A100030B589B005460C460121084600F0E4FADD
:100A20000121042000F0F0FA18208DF823000120A5
:100A3000ADF8200003208DF8220008A91A48FFF71E
:100A400071FE4FF0804000F0B8FD0020ADF81A00B4
:100A5000ADF81600681E80B2ADF81800601E80B2B6
:100A6000ADF8140000208DF81C0005A94FF080405F
:100A700000F002FE01A800F0F3FD6020ADF80400D4
:100A80000020ADF80C000120ADF806000020ADF804
:100A90000A0001A94FF0804000F096FD012188076F
:100AA00000F065FD09B030BD0008014010B50446F6
:100AB00041F23010844200DD00E020460446214629
:100AC0004FF0804000F0D6FD204610BD704700007A
:100AD00070B5002100230F22C47804B3154C24689C
:100AE00004F4E064C4F5E064210AC1F10403CA40DF
:100AF000447804FA03F184781440214309010E4C30
:100B00000678A155047804F01F050124AC4005784F
:100B10006D11AD0005F1E025C5F8004109E004784C
:100B200004F01F050124AC40044D0678761145F809
:100B3000264070BD0CED00E000E400E080E100E044
:100B400002490143024A1160704700000000FA05A3
:100B50000CED00E070B500240EE00021204600F00E
:100B6000F0F8002504E0002000F02EFA681CC5B261
:100B7000802DF8DB601CC4B2082CEEDB70BD0000D9
:100B800008B50121082000F03FFA14208DF8030079
:100B900003208DF802004FF48070ADF80000694624
:100BA0000A48FFF7BFFD4FF40070ADF8000069463A
:100BB0000648FFF7B7FD012211020448FFF748FE7F
:100BC000012251020148FFF743FE08BD000C01401D
:100BD00070B50546002415E08020204100EA05029A
:100BE0004FF400710E48FFF733FE012211020C484A
:100BF000FFF72EFE00224FF480710948FFF728FE10
:100C0000601CC4B2082CE7DB012211020448FFF784
:100C10001FFE00224FF480710148FFF719FE70BDDE
:100C2000000C014010B5012251020A48FFF710FEE6
:100C3000012211020748FFF70BFE00224FF400715A
:100C40000448FFF705FE00224FF480710148FFF7CA
:100C5000FFFD10BD000C014010B500224FF40071E3
:100C60000648FFF7F5FD012211020448FFF7F0FDE9
:100C7000012251020148FFF7EBFD10BD000C0140BD
:100C800070B5002406E0002500E06D1CB5F57A7F04
:100C9000FBD3641CB4F57A7FF5D3FFF771FFAE2068
:100CA00000F082F9D52000F07FF9802000F07CF977
:100CB000A82000F079F93F2000F076F9D32000F069
:100CC00073F9002000F070F9402000F06DF9A120C8
:100CD00000F06AF9C82000F067F9DA2000F064F942
:100CE000122000F061F9812000F05EF9CF2000F0C1
:100CF0005BF9D92000F058F9F12000F055F9DB201C
:100D000000F052F9302000F04FF9A42000F04CF927
:100D1000A62000F049F98D2000F046F9142000F0DB
:100D200043F9AF2000F040F9FFF714FF70BD10B594
:100D30000246012000E050430B1EA1F10101FAD14F
:100D400010BD70B505460C4645F0B00000F02CF91A
:100D5000102141EA141000F027F904F00F0000F010
:100D600023F970BD2DE9F04105460E461746721E67
:100D7000D206110E6A1E5206100EFFF7E2FF002483
:100D800009E0A7F12001134A02EB0111085D00F010
:100D90001BF9601CC4B2082CF3DB721ED206110EC4
:100DA0006A1E012303EB4202D0B2FFF7CAFF002400
:100DB0000BE0A7F12001074A02EB011204F1080140
:100DC000505C00F001F9601CC4B2082CF1DBBDE8F6
:100DD000F0810000F428000810B501231F48082105
:100DE0000268184600F064F803231D4802780E21BB
:100DF000012000F05DF804231A480821026802204F
:100E000000F056F80423184808210268032000F077
:100E10004FF81648007801280AD115A201210420B4
:100E200000F0AEF816A20121042000F0A9F813E0AA
:100E30000E48007802280AD10DA20121042000F0FA
:100E40009FF813A20121042000F09AF804E014A2F4
:100E50000121042000F094F810BD00006C00002077
:100E6000680000206000002064000020690000206D
:100E70002020202020202020202020202020200092
:100E80004445544543545F50454F504C4500000085
:100E90004E4F5F50454F504C455F4845524500000E
:100EA000202047656E6975735F4E4E20202000003C
:100EB0002DE9F04780460E4617461D46002415E0F2
:100EC000281B411E0A20FFF732FFB7FBF0F00A2172
:100ED000B0FBF1F201FB120000F130093019C1B290
:100EE0004A464046FFF73EFF601CC4B2AC42E7DB17
:100EF000BDE8F08710B514A20121084600F040F8C3
:100F000013A20A21012000F03BF813A201210220C4
:100F100000F036F812A20121032000F031F812A2ED
:100F20000821012000F02CF810A20E21012000F071
:100F300027F80FA20821022000F022F80EA20821B3
:100F4000032000F01DF810BD4F4E2F4F4646000005
:100F50004B65793A00000000536572766F3A0000E5
:100F60004D6F746F723A000030000000323535006A
:100F700031323030000000003030303000000000EE
:100F80002DE9F04107460E461546002407E02A5D8C
:100F90003019C1B23846FFF7E5FE601CC4B2285DC7
:100FA0000028F4D1BDE8F08110B50446FFF73AFE01
:100FB0007820FFF70DFE0020FFF70AFE2046FFF71E
:100FC00007FEFFF749FE10BD10B50446FFF72AFEE5
:100FD0007820FFF7FDFD4020FFF7FAFD2046FFF7E0
:100FE000F7FDFFF739FE10BD29B1064AD269024369
:100FF000044BDA6104E0034AD2698243014BDA61AF
:10100000704700000010024029B1064A926902436D
:10101000044B9A6104E0034A92698243014B9A614E
:10102000704700000010024030B50021002200246B
:1010300000232D4D6D6805F00C0121B1042905D068
:10104000082923D105E0294D056022E0274D0560E0
:101050001FE0254D6D6805F47012234D6D6805F491
:101060008034022505EB92421CB9214D55430560A1
:101070000BE01D4D6D6805F400351DB11C4D554349
:10108000056002E0194D5543056002E0174D05600B
:1010900000BF00BF144D6D6805F0F0010909154D42
:1010A0006B5C0568DD4045600F4D6D6805F4E061DF
:1010B000090A104D6B5C4568DD4085600A4D6D681E
:1010C00005F46051C90A0B4D6B5C4568DD40C56095
:1010D000054D6D6805F44041890B074D6B5CC56893
:1010E000B5FBF3F5056130BD0010024000127A0037
:1010F00000093D001400002024000020704700007B
:1011000010B586B0044601218803FFF77DFF4FF438
:101110000070ADF8140018208DF8170003208DF82A
:10112000160005A91F48FFF7FDFA4FF48060ADF8DF
:10113000140048208DF8170003208DF8160005A92B
:101140001848FFF7EFFA01940020ADF810000C20CA
:10115000ADF80E000020ADF80C00ADF80A00ADF8B7
:10116000080001A9104800F0A1FB012240F225511E
:101170000D4800F075FB4FF4A060FFF7E1FC25205F
:101180008DF8000001208DF803008DF801008DF826
:1011900002006846FFF79CFC0121034800F01DFB9C
:1011A00006B010BD000801400038014010B586B0FF
:1011B000044601214804FFF717FF18208DF8170097
:1011C0000420ADF8140003208DF8160005A914487A
:1011D000FFF7A8FA48208DF817000820ADF8140092
:1011E00003208DF8160005A90D48FFF79BFA01941E
:1011F0000020ADF810000C20ADF80E000020ADF876
:101200000C00ADF80A00ADF8080001A9054800F08F
:101210004DFB0121034800F0E0FA06B010BD0000CC
:10122000000801400044004010B50446214605482E
:1012300000F0ADFB00BF8021024800F0DAFA002880
:10124000F9D010BD0044004000B589B00121022052
:10125000FFF7CAFE01210420FFF7D6FE18208DF803
:1012600023004020ADF8200003208DF8220008A9BB
:101270001948FFF757FA194800F09FF90020ADF818
:101280001A00ADF8160044F61F60ADF818004720AC
:10129000ADF8140000208DF81C0005A90F4800F0DF
:1012A000EBF901A800F0DCF96020ADF804000020A3
:1012B000ADF80C000120ADF8060040F2E240ADF8B8
:1012C0000A0001A9054800F07FF90121034800F058
:1012D0004EF909B000BD00000008014000040040C4
:1012E00010B50446B4F5487F02DA4FF4487006E0C2
:1012F000B4F5C86F02DD4FF4C86000E02046044634
:101300002146024800F0B6F9204610BD0004004016
:1013100010B500F001F810BD0CB500200190009050
:101320003348006840F480303149086000BF3048DD
:10133000006800F4003000900198401C0190009873
:1013400018B90198B0F5A06FF1D12948006800F4F0
:10135000003010B10120009001E0002000900098C2
:10136000012843D12348006840F01000214908605B
:101370000846006820F0030008600846006840F056
:10138000020008601A4840681949486008464068E9
:1013900048600846406840F48060486008464068FD
:1013A00020F47C1048600846406840F4E81048602B
:1013B0000846006840F08070086000BF0C48006874
:1013C00000F000700028F9D00948406820F00300C0
:1013D000074948600846406840F00200486000BF86
:1013E0000348406800F00C000828F9D10CBD00004B
:1013F000001002400020024030B50246114800684B
:1014000050434FF47A71B0FBF1F0401E4FF0E021F1
:10141000486148170F21002807DA0B071D0E0A4BF9
:1014200000F00F04241F1D5503E00B071C0E074B93
:101430001C5400BF00204FF0E021886107200861A4
:1014400030BD00000000002018ED00E000E400E0E6
:1014500010B501F0D9F810BD10B51348006840F080
:1014600001001149086008464068104908400E49CB
:101470004860084600680E4908400B490860084665
:10148000006820F4802008600846406820F4FE00D0
:1014900048604FF41F008860FFF73AFF4FF000608C
:1014A0000449086010BD0000001002400000FFF871
:1014B000FFFFF6FE08ED00E010B501210E4800F038
:1014C00062F8B8B10D480078401C0C490870084615
:1014D000007832280ADD0A48006808B9012000E0D7
:1014E00000200749086000200449087001210248D3
:1014F00000F03AF810BD0000000800402B0000206A
:10150000B40122427FB505460C4601210420FFF7B5
:101510006BFD681E80B2ADF80800601E80B2ADF8A9
:1015200004000020ADF80A00ADF8060001A90D483E
:1015300000F0A2F8012211460A4800F035F81E20FA
:101540008DF8000000208DF8010001208DF80200C8
:101550008DF803006846FFF7BBFA0121014800F04F
:1015600006F87FBD00080040CA430282704721B1DF
:10157000028842F00102028004E002884FF6FE7306
:101580001A400280704730B5024600200023002434
:10159000158A05EA0103958905EA010413B10CB126
:1015A000012000E0002030BD1AB183890B43838104
:1015B00002E083898B438381704701894FF6F8727B
:1015C000114001817047000070B500240022002303
:1015D000058C4FF6FE7635400584028C8388048B9B
:1015E0004FF68F752C40B51E2C400D882C43751E70
:1015F0002A400D892A434D882A43144DA8420BD016
:10160000134DA84208D0134DA84205D0124DA84250
:1016100002D0124DA84213D14FF6F7752A404D89DA
:101620002A434FF6FB752A408D882A434FF6FF6503
:101630002B404FF6FF552B408D892B43CD892B43F3
:1016400083800483CD888586028470BD002C014090
:101650000034014000400140004401400048014086
:101660000021018041808180C1800181418181818F
:10167000C181704781867047002202881D4B9842C5
:101680000ED01D4B98420BD0B0F1804F08D01B4BB1
:10169000984205D01A4B984202D01A4B984204D176
:1016A0004FF68F731A404B881A43174B984207D056
:1016B000164B984204D04FF6FF431A40CB881A438A
:1016C00002808B8883850B8803850A4B98420BD058
:1016D000094B984208D00E4B984205D00D4B9842CA
:1016E00002D00D4B984201D10B7A038601238382ED
:1016F00070470000002C014000340140000400400D
:1017000000080040000C00400010004000140040A1
:1017100000400140004401400048014010B540F243
:101720002551214800F072F801283CD11E4800F0F4
:1017300029F9C4B21D48007858B9402C2DD11C4855
:10174000007850BB01201949087000201949087021
:1017500023E01648007801280FD10D2C03D1022078
:101760001249087019E01448124909784454114884
:101770000078401C0F4908700FE00C4800780228E0
:101780000BD10A2C09D10020084908700A49094ADE
:101790001278885401200649087040F22551024809
:1017A00000F00CF800BF10BD0038014029000020F7
:1017B000280000202A0000207800002010B5002218
:1017C000002340F66A14A14200D100BF0A1201248E
:1017D0009440A3B2DC43048010BD21B1828942F45D
:1017E0000052828104E082894DF6FF731A408281A3
:1017F000704702460020B1F5007F00D100BF13887A
:101800000B400BB1012000E00020704770B502468C
:10181000002400230025002040F66A16B14200D1C2
:1018200000BFC1F3421501F01F03012606FA03F3BE
:10183000012D02D19689334006E0022D02D1168A8D
:10184000334001E0968A33400C12012606FA04F474
:101850001688344013B10CB1012000E0002070BDA7
:10186000F0B50346002400260025002040F66A1744
:10187000B94200D100BF1846C1F3421401F01F065F
:10188000012707FA06F5012C01D10C3004E0022CE7
:1018900001D1103000E014301AB107682F430760FF
:1018A00002E00768AF430760F0BD00002DE9F04794
:1018B00086B005460E460024A24600BFA14600277A
:1018C000B08900B100BF2F462C8A4CF6FF7004404F
:1018D000F08804432C82AC894EF6F3100440B088A3
:1018E00031890843718908430443AC81AC8A4FF6BF
:1018F000FF400440B0890443AC8201A8FFF794FB89
:101900001F48874202D1DDF810A001E0DDF80CA0ED
:10191000A88900F4004040B10AEBCA0000EB0A10AD
:1019200031684900B0FBF1F807E00AEBCA0000EBB0
:101930000A1031688900B0FBF1F86420B8FBF0F0C0
:1019400004012009642101FB1089A88900F40040EA
:1019500040B1322000EBC900B0FBF1F000F007000D
:10196000044308E0322000EB09106421B0FBF1F0E1
:1019700000F00F0004432C8106B0BDE8F0870000A2
:101980000038014001468888C0F308007047C1F361
:1019900008028280704700BFFEE700000FB4054BCD
:1019A00010B503A9044A029800F018F810BC5DF8BD
:1019B00014FB00005D1C00087400002002E008C851
:1019C000121F08C1002AFAD170477047002001E0B9
:1019D00001C1121F002AFBD1704700002DE9FF4F03
:1019E00089B09B460446002506E025280BD05A46C0
:1019F0000B999047641C6D1C20780028F5D10DB020
:101A00002846BDE8F08F0027B8460122474900E08C
:101A1000074314F8013F203B02FA03F00842F7D1D4
:101A200020782E2819D114F8010F47F004072A282E
:101A30000ED06FF02F022078A0F1300109290CD8C8
:101A400008EB880102EB410100EB0108641CF2E79E
:101A50000A98641C50F8048B0A9020780028CED095
:101A6000642808D0692806D075281ED05A460B99DC
:101A700090476D1C58E00A994FF00A0901C90A9174
:101A8000002802DA40422D2102E0390504D52B213D
:101A90008DF82010012103E0F90704D02021F7E799
:101AA0008A4608AE0DE00021FAE70A994FF00A09CC
:101AB00001C90A91F7E74946FEF72DFD303106F8D6
:101AC000011D0028F7D1ADEB060000F120097807D1
:101AD00001D44FF00108C84502DDA8EB090000E081
:101AE00000208046002706E008A85A46C05D0B99F2
:101AF00090476D1C7F1C5745F6DB04E030205A46AA
:101B00000B9990476D1CB8F10001A8F10108F5DCB4
:101B100005E016F8010B5A460B9990476D1CB9F178
:101B20000001A9F10109F4DC641C65E70928010042
:101B30001CB54FF40070104902230022CDE90010BB
:101B40000E490F4800F02EFC4FF400700D490023A1
:101B50001A46CDE900100C490C4800F023FC4FF464
:101B600000700B4901230022CDE9001009490A4801
:101B700000F018FC1CBD000004060020991E00089F
:101B80001405002004080020E91C0008640500205A
:101B9000040A00209D1E0008B40500202DE9FF5F07
:101BA0002348006838B901202149086000202149F4
:101BB0000860BDE8FF9F1F480068642809D11E48DF
:101BC00000681E49086000201B49086000F0B0FC56
:101BD0002CE0184800686421B0FBF1F201FB120010
:101BE00020BB16480068FEF76DFC04460D461248FF
:101BF0000068FEF767FC80460022114BFEF781FB70
:101C0000064622462B46FEF7EEFB00220D4BCDE9A1
:101C10000001FEF776FB82460022094BFEF76EFBC1
:101C2000CDE90201FEF75BFC0749086000BFC0E791
:101C30005000002048000020400000204400002008
:101C4000000059400000F03F4C00002000BF024857
:101C500000680028FBD070475000002070B5044693
:101C60000D46E0B2FFF7E0FA204670BD10B54FF424
:101C7000A060FEF765FFFEF793FEFEF73DFDFEF761
:101C800069FE0020FEF7AAFE0A214FF4E150FEF79C
:101C9000BFFEFEF7F5FFFFF72DF94FF4E130FFF738
:101CA0002FFA4FF41650FFF781FAFFF7CDFA6421AF
:101CB0004FF4E150FFF726FC10BD0000002005495D
:101CC000086005490860054908600549086005493C
:101CD000086070474C0000204000002044000020B5
:101CE000480000205000002008B505224B494C4810
:101CF00000F01DFA00BF0020FEF7B0FD4949087052
:101D000008460078FF2808D0084600780090002296
:101D10006946434800F01CFA00BF42480078B0B959
:101D20004148006898B901203F4908604FF4966027
:101D3000FFF7D6FA3D49086040F62820FEF7B6FEC8
:101D40003B490860084600683A49086063E0384843
:101D5000006800285FDD3348007801280FD134483F
:101D60000068C83032490860098888B2FEF79EFED4
:101D70002F490860084600682E4908604BE0294852
:101D8000007802280FD12A480068C838284908601E
:101D9000098888B2FEF78AFE25490860084600686F
:101DA0002449086037E01F48007803280BD11F48FA
:101DB000006864301D490860098888B2FFF790FA0E
:101DC0001A49086027E01748007804280BD1174803
:101DD0000068643815490860098888B2FFF780FAFE
:101DE0001249086017E010480068012813D10D4817
:101DF000007880B900200C490860FEF757FE0C49B6
:101E000008604FF49660FFF76BFA084908600848CD
:101E1000006808490860FEF7DFFF6CE70005002056
:101E2000DC040020680000206C000020600000201E
:101E300064000020700000204060006070470000D7
:101E40001CB5FFF713FF00F057FB0D4800F053F9E6
:101E5000FFF734FF80200B491F230022CDE900103B
:101E600009490A4800F09EFA08480949086000F04C
:101E700085FA0849086000F031FB00201CBD000015
:101E800038020020540C0020C1270008040C002058
:101E9000340000203000002000BFFEE708B500BF7E
:101EA000002000900524224669461E4800F09CF957
:101EB000054635B90098066831461BA0FFF76EFD50
:101EC00000BF1B480078012824D11AA11B48FEF747
:101ED00063F950B901201A4908701A49098888B273
:101EE000FEF7E4FD1849086010E018A11348FEF75A
:101EF00053F940B90220124908700020FEF7D6FDC0
:101F00001149086002E000200D49087000200849CE
:101F1000087002E0FF200A490870052000F00CFA62
:101F2000BEE70000DC04002025640D0A000000006C
:101F30002800002050656F706C650000780000205C
:101F40006900002070000020640000204E6F6E6564
:101F50000000000001238B4002689A430260704732
:101F600000B50146087818B10878134A105C00BD26
:101F7000088800F47F4030B10888C0F307200E4A7B
:101F8000105C0830F3E7086800F47F0030B108689F
:101F9000C0F30740084A105C1030E8E7086800F01A
:101FA0007F4028B10868000E034A105C1830DEE755
:101FB00000F007F8DBE70000F427000800210160CB
:101FC00070472020704701238B4002681A4302604B
:101FD000704770B504460D4600202060201D00F0BB
:101FE0008AF870BD2DE9F04104460D46164600F012
:101FF000B9F90746E16B081D04F10C0100F080F807
:102000000020E06325646664206A20F47F0020627B
:10201000384600F0ADF9BDE8F0812DE9F0470546FE
:102020000C4616461F46DDF8208000F09BF98146DD
:10203000206A38432062E5632664012060642046FC
:1020400000F02EFA04F10C01281D00F041F8B8F15F
:10205000000F03D04146204600F05EF9484600F0EC
:1020600087F9BDE8F08770B5044600F07BF90646B5
:10207000201D00F037F80546304600F079F9284673
:1020800070BD2DE9F04705460E46174600F06AF987
:102090008146281D00F03EF88046B8F1000F11D0AF
:1020A000A8F10C040020E06326646764206A20F431
:1020B0007F002062E06910B1204600F0E3F920467D
:1020C00000F084FA484600F053F92046BDE8F08756
:1020D000486002680A600268516001608268521CB0
:1020E00082607047014688687047014600208A6810
:1020F00002B148687047406000600021816070470D
:10210000D1E900325A60D1E900231A608268521E78
:1021100082607047014600208A683AB14868426888
:10212000116042684A608A68521E8A60704770B5C2
:1021300004460E4615464FF400312046FFF749FF8E
:102140002662002020616561A061E06170BD000031
:102150002DE9F04104460D46174600F003F980468C
:102160002046FFF780FF70B1002211462046FFF79E
:1021700088FF06461B49706A0968496A88422CD262
:1021800000F002FA29E0D4E90401884205D3404670
:1021900000F0EEF80420BDE8F08107F0010068B11E
:1021A000A06918B96069401EA06102E0A069401EE4
:1021B000A061A169206A40F821500BE0E169481C48
:1021C000E061206A40F821506169E069884201D3EA
:1021D0000020E0612069401C2061404600F0C8F802
:1021E0000020D8E72C000020F8B504460D4616461E
:1021F00000F0B8F807462069A0B12069401E2061B0
:10220000A169481CA061206A50F821002860D4E927
:102210000510884201D30020A061384600F0A8F8DC
:102220000020F8BD4FF400330022094800960168F1
:102230002046FFF7F2FE384600F09AF800F0A4F9C5
:1022400003480068006C286001480068406CE8E7BB
:102250002C00002070B504460E4615464FF4803120
:102260002046FFF7B6FE65610DB9266105E0AE4276
:1022700001D9284600E03046206170BD70B50446A3
:1022800000F070F806462046FFF7EDFE70B1002220
:1022900011462046FFF7F5FE05460C49686A0968B5
:1022A000496A884201D200F06FF90AE02069401CB7
:1022B0002061606928B1D4E90401884201D96069CC
:1022C0002061304600F054F870BD00002C00002062
:1022D000F8B504460D4600F045F80646206938B1C9
:1022E0002069401E2061304600F042F80020F8BD11
:1022F0004FF4803300220748009501682046FFF71D
:102300008CFE304600F034F800F03EF901480068D9
:10231000406CECE72C00002070B504460D46E561EA
:10232000211D0448FFF7D4FE206A40F0020020621D
:1023300070BD00003802002070B5044600F012F8AD
:102340000546214606480068FFF7E6FF0448006896
:1023500000F0A6F800F018F9284600F009F870BD62
:102360002C00002000BFEFF31081084672B67047C2
:1023700000BF80F3108800BF7047000070B50748A9
:10238000FFF7EEFD044604EB4401054A02EB810031
:10239000FFF7ABFE0546A5F10C0070BD3C00002028
:1023A000B80000202DE9F0470446884691469A4639
:1023B000DDE908676661A76139463046FDF7E1FE51
:1023C000B80806EB80054FF08071281F05460160B4
:1023D000281F0546C0F800801421281F054601600B
:1023E0001221281F054601600321281F05460160B0
:1023F0000221281F054601600121281F05460160B2
:10240000281F0546C0F800901121281F05460160CD
:102410001021281F054601600921281F054601607B
:102420000821281F054601600721281F0546016075
:102430000621281F054601600521281F0546016069
:102440000421281F0546016025600020E061C4F8D2
:1024500024A00A20E062206A20620020A06220639B
:10246000606384F83800E0632064606404F10C0069
:10247000FFF7E2FC201DFFF7DFFC204600F0A6F886
:10248000BDE8F08710B50446211D0448FFF738FE6B
:10249000206A20F00200206210BD000038020020F7
:1024A00010B50446616A01EB41010A4A02EB810062
:1024B00004F10C01FFF724FE616A01EB4101054ABA
:1024C00002EB8100FFF70EFE18B90348616AFFF7BF
:1024D00041FD10BDB80000203C00002010B50020D8
:1024E000FDF711FEFF2003490870C80601491E3997
:1024F000086010BD22ED00E010B50024002009495D
:1025000008700948FFF75AFD00BF07E004EB4401DB
:10251000064A02EB8100FFF7EEFD641C202CF5DB80
:1025200010BD0000380000203C000020B800002052
:1025300010B5FFF717FF044608480078002808DDAB
:1025400006480078401EC0B20449087008B900F07F
:102550001BF82046FFF70CFF10BD000038000020DC
:1025600010B5FFF7FFFE044606480078FF2804DA9E
:1025700004480078401C034908702046FFF7F8FE25
:1025800010BD00003800002070B5FFF7EBFE0546D7
:102590000B480078002803DD2846FFF7E9FE70BDF0
:1025A000FFF7ECFE044607480068844203D0064863
:1025B000046000F021F82846FFF7DAFE00BFEEE7DE
:1025C000380000202C0000203000002010B5044608
:1025D000616A01EB4101064A02EB810004F10C0142
:1025E000FFF776FD0348616AFFF7EDFC10BD0000C0
:1025F000B80000203C0000204FF0805001490860E6
:102600007047000004ED00E070B5FFF7ABFE064632
:102610002B48456812E02C1FE069401EE06160B95C
:10262000E06B20B1012200212046FFF7DBFC2046B1
:10263000FFF728FF2046FFF7C9FF6D682048854255
:10264000E9D120480068C06A401E1E490968C86276
:1026500030BB1C490968496A01EB41011A4A02EB87
:102660008100FFF73FFD01281AD916490968496A18
:1026700001EB4101144A02EB8100FFF74BFD1149C8
:102680000968496A01EB41010F4A02EB81000D49DB
:1026900009680C31FFF71CFD0A200A490968C86265
:1026A0000A480068401C09490860FFF777FA30467D
:1026B000FFF75EFE00F05CF8FFF766FF70BD0000FC
:1026C000380200202C000020B80000204800002024
:1026D00070B505466E681CE03446206918B1206963
:1026E000401E2061A0B9022084F82000D4E9051022
:1026F0008847012084F82000E06810B1E06820617C
:1027000006E021462846FFF7FBFC032084F8200062
:102710007668AE42E0D170BD1CB50D48FFF7EBFC0A
:102720000C48FFF7E8FC012211460B48FFF792FD29
:10273000002211460948FFF78DFD8020084901233A
:10274000084ACDE9001008490848FFF72BFE1CBDD8
:1027500094040020A0040020AC040020C404002045
:102760009402002078563412952700084402002075
:1027700010B5FFF7F7FD04460448FFF7A9FF204610
:10278000FFF7F6FD0248FFF779FD10BD9404002025
:10279000C404002000BF00210648FFF799FD002176
:1027A0000548FFF795FD0548FFF792FF0248FFF740
:1027B00065FDF0E7C4040020AC040020A004002064
:1027C000FFF7CEFE0A20FEF717FEFFF7A5FFFFF783
:1027D000AFF9FFF73BFA00BFFFF7C4FD044604481A
:1027E0000068401C024908602046FFF7C1FDF3E77E
:1027F00040000020FF000100020001000300010072
:1028000002000100040001000200010003000100B9
:1028100002000100050001000200010003000100A8
:102820000200010004000100020001000300010099
:102830000200010006000100020001000300010087
:102840000200010004000100020001000300010079
:102850000200010005000100020001000300010068
:102860000200010004000100020001000300010059
:102870000200010007000100020001000300010046
:102880000200010004000100020001000300010039
:102890000200010005000100020001000300010028
:1028A0000200010004000100020001000300010019
:1028B0000200010006000100020001000300010007
:1028C00002000100040001000200010003000100F9
:1028D00002000100050001000200010003000100E8
:1028E00002000100040001000200010003000100D9
:1028F00002000100000000000000000000000000D5
:1029000000000000000000F800000000000000339C
:102910003000000000100C06100C06000000000043
:102920000000000040C07840C0784000043F04042C
:102930003F040400007088FC08300000001820FFED
:10294000211E0000F008F000E018000000211C0328
:102950001E211E0000F00888700000001E212324A4
:102960001927211010160E000000000000000000C2
:1029700000000000000000E0180402000000000752
:102980001820400000020418E00000000040201859
:1029900007000000404080F0804040000202010F2C
:1029A00001020200000000F0000000000101011F10
:1029B00001010100000000000000000080B0700074
:1029C0000000000000000000000000000001010104
:1029D0000101010100000000000000000030300093
:1029E000000000000000000080601804006018066D
:1029F0000100000000E010080810E000000F1020A7
:102A000020100F00001010F8000000000020203FF0
:102A1000202000000070080808887000003028247A
:102A2000222130000030088888483000001820201B
:102A300020110E000000C02010F800000007042440
:102A4000243F240000F80888880808000019212085
:102A500020110E0000E0108888180000000F1120DF
:102A600020110E0000380808C83808000000003F98
:102A7000000000000070880808887000001C2221F7
:102A800021221C0000E010080810E00000003122A4
:102A900022110F00000000C0C00000000000003044
:102AA0003000000000000080000000000000806096
:102AB0000000000000008040201008000001020417
:102AC00008102000404040404040400004040404FE
:102AD00004040400000810204080000000201008BA
:102AE00004020100007048080808F00000000030EF
:102AF00036010000C030C828E810E000071827247D
:102B000023140B000000C038E0000000203C23022A
:102B10000227382008F8888888700000203F20208D
:102B200020110E00C03008080808380007182020BF
:102B30002010080008F808080810E000203F2020B6
:102B400020100F0008F88888E8081000203F202097
:102B50002320180008F88888E8081000203F20008B
:102B600003000000C03008080838000007182020C3
:102B7000221E020008F808000008F808203F210182
:102B800001213F20000808F8080800000020203F2D
:102B90002020000000000808F8080800C08080809D
:102BA0007F00000008F888C028180800203F200196
:102BB0002638200008F8080000000000203F2020F0
:102BC0002020300008F8F800F8F80800203F003F07
:102BD000003F200008F830C00008F808203F20001F
:102BE00007183F00E01008080810E0000F10202030
:102BF00020100F0008F808080808F000203F210105
:102C000001010000E01008080810E0000F1824245B
:102C100038504F0008F8888888887000203F2000CE
:102C2000030C302000708808080838000038202184
:102C300021221C00180808F8080818000000203F8E
:102C40002000000008F808000008F808001F2020F5
:102C500020201F000878880000C8380800000738C6
:102C60000E010000F80800F80008F800033C070017
:102C7000073C0300081868808068180820302C037F
:102C8000032C30200838C800C83808000000203F56
:102C90002000000010080808C83808002038262145
:102CA00020201800000000FE020202000000007F49
:102CB00040404000000C30C0000000000000000157
:102CC0000638C00000020202FE0000000040404042
:102CD0007F00000000000402020204000000000067
:102CE00000000000000000000000000080808080E4
:102CF00080808080000202040000000000000000CC
:102D00000000000000008080808000000019242264
:102D100022223F2008F8008080000000003F1120A0
:102D200020110E000000008080800000000E1120A5
:102D300020201100000000808088F800000E112083
:102D400020103F200000808080800000001F222291
:102D500022221300008080F0888888180020203FFD
:102D6000202000000000808080808000006B949410
:102D70009493600008F8008080800000203F2100CC
:102D800000203F2000809898000000000020203F95
:102D900020200000000000809898000000C0808083
:102DA000807F000008F8000080808000203F24021F
:102DB0002D302000000808F8000000000020203F0F
:102DC000202000008080808080808000203F2000C4
:102DD0003F20003F8080008080800000203F210055
:102DE00000203F200000808080800000001F202005
:102DF00020201F00808000808000000080FFA12034
:102E000020110E000000008080808000000E112044
:102E100020A0FF80808080008080800020203F21D3
:102E20002000010000008080808080000033242486
:102E300024241900008080E0808000000000001F32
:102E4000202000008080000000808000001F2020E3
:102E500020103F20808080000080808000010E30A4
:102E60000806010080800080008080800F300C0305
:102E70000C300F0000808000808080000020312E08
:102E80000E312000808080000080808080818E70E4
:102E90001806010000808080808080000021302C96
:102EA0002221300000000000807C020200000000AF
:102EB000003F404000000000FF0000000000000054
:102EC000FF0000000002027C800000000040403F44
:102ED00000000000000601010202040400000000DE
:102EE00000000000042F000800000020780000000F
:102EF000BC1900087C2F000878000020E0110000B9
:102F0000CC19000800A24A040000000000000000E4
:102F1000010203040607080900000000010203047F
:102F20000102030406070809020406080000000065
:102F30000000000000000000000000000000000091
:102F40000000000000000000000000000000000081
:102F50000000000000000000000000000100000070
:102F600000000000B004000000000000FFFF0000AF
:0C2F700000000000000000000000000055
:04000005080000ED02
:00000001FF
